{
  "data": {
    "bytecode": {
      "linkReferences": {},
      "object": "6080604052670de0b6b3a764000060025534801561001b575f80fd5b5061003861002d61004460201b60201c565b61004b60201b60201c565b6001808190555061010c565b5f33905090565b5f805f9054906101000a900473ffffffffffffffffffffffffffffffffffffffff169050815f806101000a81548173ffffffffffffffffffffffffffffffffffffffff021916908373ffffffffffffffffffffffffffffffffffffffff1602179055508173ffffffffffffffffffffffffffffffffffffffff168173ffffffffffffffffffffffffffffffffffffffff167f8be0079c531659141344cd1fd0a4f28419497f9722a3daafe3b4186f6b6457e060405160405180910390a35050565b612b81806101195f395ff3fe608060405234801561000f575f80fd5b50600436106100fe575f3560e01c806398969e8211610095578063cf48bd2c11610064578063cf48bd2c146102b0578063e2bbb158146102ce578063f2fde38b146102ea578063f525cb6814610306576100fe565b806398969e8214610218578063ae169a5014610248578063c20632ba14610264578063c326bf4f14610280576100fe565b80636ea056a9116100d15780636ea056a9146101a2578063715018a6146101be5780638da5cb5b146101c857806393f1a40b146101e6576100fe565b80631526fe271461010257806334c1f9441461013657806339739b991461016a578063441a3e7014610186575b5f80fd5b61011c60048036038101906101179190611a3c565b610324565b60405161012d959493929190611af0565b60405180910390f35b610150600480360381019061014b9190611a3c565b6103a3565b604051610161959493929190611bd1565b60405180910390f35b610184600480360381019061017f9190611c29565b610489565b005b6101a0600480360381019061019b9190611c29565b6104c2565b005b6101bc60048036038101906101b79190611c91565b6108ab565b005b6101c6610a2c565b005b6101d0610a3f565b6040516101dd9190611ccf565b60405180910390f35b61020060048036038101906101fb9190611ce8565b610a66565b60405161020f93929190611d26565b60405180910390f35b610232600480360381019061022d9190611ce8565b610a97565b60405161023f9190611d5b565b60405180910390f35b610262600480360381019061025d9190611a3c565b610afa565b005b61027e60048036038101906102799190611daf565b610d45565b005b61029a60048036038101906102959190611e13565b610e8f565b6040516102a79190611d5b565b60405180910390f35b6102b8610ea4565b6040516102c59190611fd2565b60405180910390f35b6102e860048036038101906102e39190611c29565b611002565b005b61030460048036038101906102ff9190611e13565b6113c0565b005b61030e611442565b60405161031b9190611d5b565b60405180910390f35b60048181548110610333575f80fd5b905f5260205f2090600502015f91509050805f015f9054906101000a900473ffffffffffffffffffffffffffffffffffffffff1690806001015f9054906101000a900473ffffffffffffffffffffffffffffffffffffffff16908060020154908060030154908060040154905085565b600781815481106103b2575f80fd5b905f5260205f2090600502015f91509050805f015490806001015490806002015f9054906101000a900473ffffffffffffffffffffffffffffffffffffffff16908060030180546104029061201f565b80601f016020809104026020016040519081016040528092919081815260200182805461042e9061201f565b80156104795780601f1061045057610100808354040283529160200191610479565b820191905f5260205f20905b81548152906001019060200180831161045c57829003601f168201915b5050505050908060040154905085565b610491611448565b5f600483815481106104a6576104a561204f565b5b905f5260205f2090600502019050818160030181905550505050565b600260015403610507576040517f08c379a00000000000000000000000000000000000000000000000000000000081526004016104fe906120c6565b60405180910390fd5b60026001819055505f600483815481106105245761052361204f565b5b905f5260205f20906005020190505f60065f8581526020019081526020015f205f3373ffffffffffffffffffffffffffffffffffffffff1673ffffffffffffffffffffffffffffffffffffffff1681526020019081526020015f20905082815f015410156105c7576040517f08c379a00000000000000000000000000000000000000000000000000000000081526004016105be9061212e565b60405180910390fd5b428160020154111561060e576040517f08c379a000000000000000000000000000000000000000000000000000000000815260040161060590612196565b60405180910390fd5b5f61061982866114c6565b90505f81111561070457826001015f9054906101000a900473ffffffffffffffffffffffffffffffffffffffff1673ffffffffffffffffffffffffffffffffffffffff1663a9059cbb33836040518363ffffffff1660e01b81526004016106819291906121b4565b6020604051808303815f875af115801561069d573d5f803e3d5ffd5b505050506040513d601f19601f820116820180604052508101906106c19190612210565b506107038582336040518060400160405280600581526020017f436c61696d00000000000000000000000000000000000000000000000000000081525061155e565b5b5f8411156108535783825f015f82825461071e9190612268565b9250508190555083836002015f8282546107389190612268565b925050819055508360055f855f015f9054906101000a900473ffffffffffffffffffffffffffffffffffffffff1673ffffffffffffffffffffffffffffffffffffffff1673ffffffffffffffffffffffffffffffffffffffff1681526020019081526020015f205f8282546107ad9190612268565b92505081905550825f015f9054906101000a900473ffffffffffffffffffffffffffffffffffffffff1673ffffffffffffffffffffffffffffffffffffffff1663a9059cbb33866040518363ffffffff1660e01b81526004016108119291906121b4565b6020604051808303815f875af115801561082d573d5f803e3d5ffd5b505050506040513d601f19601f820116820180604052508101906108519190612210565b505b42826001018190555061089d8585336040518060400160405280600881526020017f576974686472617700000000000000000000000000000000000000000000000081525061155e565b505050600180819055505050565b6108b3611448565b5f8273ffffffffffffffffffffffffffffffffffffffff166370a08231306040518263ffffffff1660e01b81526004016108ed9190611ccf565b602060405180830381865afa158015610908573d5f803e3d5ffd5b505050506040513d601f19601f8201168201806040525081019061092c91906122af565b905080821115610971576040517f08c379a000000000000000000000000000000000000000000000000000000000815260040161096890612324565b60405180910390fd5b60055f8473ffffffffffffffffffffffffffffffffffffffff1673ffffffffffffffffffffffffffffffffffffffff1681526020019081526020015f205482826109bb9190612268565b10156109fc576040517f08c379a00000000000000000000000000000000000000000000000000000000081526004016109f39061238c565b60405180910390fd5b610a2733838573ffffffffffffffffffffffffffffffffffffffff166116439092919063ffffffff16565b505050565b610a34611448565b610a3d5f6116c9565b565b5f805f9054906101000a900473ffffffffffffffffffffffffffffffffffffffff16905090565b6006602052815f5260405f20602052805f5260405f205f9150915050805f0154908060010154908060020154905083565b5f8060065f8581526020019081526020015f205f8473ffffffffffffffffffffffffffffffffffffffff1673ffffffffffffffffffffffffffffffffffffffff1681526020019081526020015f209050610af181856114c6565b91505092915050565b600260015403610b3f576040517f08c379a0000000000000000000000000000000000000000000000000000000008152600401610b36906120c6565b60405180910390fd5b60026001819055505f60048281548110610b5c57610b5b61204f565b5b905f5260205f20906005020190505f60065f8481526020019081526020015f205f3373ffffffffffffffffffffffffffffffffffffffff1673ffffffffffffffffffffffffffffffffffffffff1681526020019081526020015f2090504281600201541115610c00576040517f08c379a0000000000000000000000000000000000000000000000000000000008152600401610bf790612196565b60405180910390fd5b5f610c0b82856114c6565b90505f8111610c4f576040517f08c379a0000000000000000000000000000000000000000000000000000000008152600401610c46906123f4565b60405180910390fd5b428260010181905550826001015f9054906101000a900473ffffffffffffffffffffffffffffffffffffffff1673ffffffffffffffffffffffffffffffffffffffff1663a9059cbb33836040518363ffffffff1660e01b8152600401610cb69291906121b4565b6020604051808303815f875af1158015610cd2573d5f803e3d5ffd5b505050506040513d601f19601f82011682018060405250810190610cf69190612210565b50610d388482336040518060400160405280600581526020017f436c61696d00000000000000000000000000000000000000000000000000000081525061155e565b5050506001808190555050565b610d4d611448565b60046040518060a001604052808673ffffffffffffffffffffffffffffffffffffffff1681526020018573ffffffffffffffffffffffffffffffffffffffff1681526020015f815260200184815260200183815250908060018154018082558091505060019003905f5260205f2090600502015f909190919091505f820151815f015f6101000a81548173ffffffffffffffffffffffffffffffffffffffff021916908373ffffffffffffffffffffffffffffffffffffffff1602179055506020820151816001015f6101000a81548173ffffffffffffffffffffffffffffffffffffffff021916908373ffffffffffffffffffffffffffffffffffffffff160217905550604082015181600201556060820151816003015560808201518160040155505060035f815480929190610e8490612412565b919050555050505050565b6005602052805f5260405f205f915090505481565b60606007805480602002602001604051908101604052809291908181526020015f905b82821015610ff9578382905f5260205f2090600502016040518060a00160405290815f820154815260200160018201548152602001600282015f9054906101000a900473ffffffffffffffffffffffffffffffffffffffff1673ffffffffffffffffffffffffffffffffffffffff1673ffffffffffffffffffffffffffffffffffffffff168152602001600382018054610f609061201f565b80601f0160208091040260200160405190810160405280929190818152602001828054610f8c9061201f565b8015610fd75780601f10610fae57610100808354040283529160200191610fd7565b820191905f5260205f20905b815481529060010190602001808311610fba57829003601f168201915b5050505050815260200160048201548152505081526020019060010190610ec7565b50505050905090565b600260015403611047576040517f08c379a000000000000000000000000000000000000000000000000000000000815260040161103e906120c6565b60405180910390fd5b60026001819055505f8111611091576040517f08c379a0000000000000000000000000000000000000000000000000000000008152600401611088906124a3565b60405180910390fd5b5f600483815481106110a6576110a561204f565b5b905f5260205f20906005020190505f60065f8581526020019081526020015f205f3373ffffffffffffffffffffffffffffffffffffffff1673ffffffffffffffffffffffffffffffffffffffff1681526020019081526020015f2090505f815f015411156111fd575f61111982866114c6565b9050826001015f9054906101000a900473ffffffffffffffffffffffffffffffffffffffff1673ffffffffffffffffffffffffffffffffffffffff1663a9059cbb33836040518363ffffffff1660e01b81526004016111799291906121b4565b6020604051808303815f875af1158015611195573d5f803e3d5ffd5b505050506040513d601f19601f820116820180604052508101906111b99190612210565b506111fb8582336040518060400160405280600581526020017f436c61696d00000000000000000000000000000000000000000000000000000081525061155e565b505b815f015f9054906101000a900473ffffffffffffffffffffffffffffffffffffffff1673ffffffffffffffffffffffffffffffffffffffff166323b872dd3330866040518463ffffffff1660e01b815260040161125c939291906124c1565b6020604051808303815f875af1158015611278573d5f803e3d5ffd5b505050506040513d601f19601f8201168201806040525081019061129c9190612210565b5082826002015f8282546112b091906124f6565b9250508190555082815f015f8282546112c991906124f6565b92505081905550428160010181905550603c82600401546112ea9190612529565b426112f591906124f6565b81600201819055508260055f845f015f9054906101000a900473ffffffffffffffffffffffffffffffffffffffff1673ffffffffffffffffffffffffffffffffffffffff1673ffffffffffffffffffffffffffffffffffffffff1681526020019081526020015f205f82825461136b91906124f6565b925050819055506113b38484336040518060400160405280600781526020017f4465706f7369740000000000000000000000000000000000000000000000000081525061155e565b5050600180819055505050565b6113c8611448565b5f73ffffffffffffffffffffffffffffffffffffffff168173ffffffffffffffffffffffffffffffffffffffff1603611436576040517f08c379a000000000000000000000000000000000000000000000000000000000815260040161142d906125da565b60405180910390fd5b61143f816116c9565b50565b60035481565b61145061178a565b73ffffffffffffffffffffffffffffffffffffffff1661146e610a3f565b73ffffffffffffffffffffffffffffffffffffffff16146114c4576040517f08c379a00000000000000000000000000000000000000000000000000000000081526004016114bb90612642565b60405180910390fd5b565b5f80600483815481106114dc576114db61204f565b5b905f5260205f20906005020190505f603c8560010154426114fd9190612268565b611507919061268d565b9050816004015481111561151d57816004015490505b8160030154606461016d83885f01546115369190612529565b611540919061268d565b61154a919061268d565b6115549190612529565b9250505092915050565b60076040518060a001604052808681526020018581526020018473ffffffffffffffffffffffffffffffffffffffff16815260200183815260200142815250908060018154018082558091505060019003905f5260205f2090600502015f909190919091505f820151815f0155602082015181600101556040820151816002015f6101000a81548173ffffffffffffffffffffffffffffffffffffffff021916908373ffffffffffffffffffffffffffffffffffffffff1602179055506060820151816003019081611630919061287e565b5060808201518160040155505050505050565b6116c48363a9059cbb60e01b84846040516024016116629291906121b4565b604051602081830303815290604052907bffffffffffffffffffffffffffffffffffffffffffffffffffffffff19166020820180517bffffffffffffffffffffffffffffffffffffffffffffffffffffffff8381831617835250505050611791565b505050565b5f805f9054906101000a900473ffffffffffffffffffffffffffffffffffffffff169050815f806101000a81548173ffffffffffffffffffffffffffffffffffffffff021916908373ffffffffffffffffffffffffffffffffffffffff1602179055508173ffffffffffffffffffffffffffffffffffffffff168173ffffffffffffffffffffffffffffffffffffffff167f8be0079c531659141344cd1fd0a4f28419497f9722a3daafe3b4186f6b6457e060405160405180910390a35050565b5f33905090565b5f6117f2826040518060400160405280602081526020017f5361666545524332303a206c6f772d6c6576656c2063616c6c206661696c65648152508573ffffffffffffffffffffffffffffffffffffffff166118569092919063ffffffff16565b90505f8151111561185157808060200190518101906118119190612210565b611850576040517f08c379a0000000000000000000000000000000000000000000000000000000008152600401611847906129bd565b60405180910390fd5b5b505050565b606061186484845f8561186d565b90509392505050565b6060824710156118b2576040517f08c379a00000000000000000000000000000000000000000000000000000000081526004016118a990612a4b565b60405180910390fd5b6118bb8561197d565b6118fa576040517f08c379a00000000000000000000000000000000000000000000000000000000081526004016118f190612ab3565b60405180910390fd5b5f808673ffffffffffffffffffffffffffffffffffffffff1685876040516119229190612b15565b5f6040518083038185875af1925050503d805f811461195c576040519150601f19603f3d011682016040523d82523d5f602084013e611961565b606091505b509150915061197182828661199f565b92505050949350505050565b5f808273ffffffffffffffffffffffffffffffffffffffff163b119050919050565b606083156119af578290506119fe565b5f835111156119c15782518084602001fd5b816040517f08c379a00000000000000000000000000000000000000000000000000000000081526004016119f59190612b2b565b60405180910390fd5b9392505050565b5f80fd5b5f819050919050565b611a1b81611a09565b8114611a25575f80fd5b50565b5f81359050611a3681611a12565b92915050565b5f60208284031215611a5157611a50611a05565b5b5f611a5e84828501611a28565b91505092915050565b5f73ffffffffffffffffffffffffffffffffffffffff82169050919050565b5f819050919050565b5f611aa9611aa4611a9f84611a67565b611a86565b611a67565b9050919050565b5f611aba82611a8f565b9050919050565b5f611acb82611ab0565b9050919050565b611adb81611ac1565b82525050565b611aea81611a09565b82525050565b5f60a082019050611b035f830188611ad2565b611b106020830187611ad2565b611b1d6040830186611ae1565b611b2a6060830185611ae1565b611b376080830184611ae1565b9695505050505050565b5f611b4b82611a67565b9050919050565b611b5b81611b41565b82525050565b5f81519050919050565b5f82825260208201905092915050565b8281835e5f83830152505050565b5f601f19601f8301169050919050565b5f611ba382611b61565b611bad8185611b6b565b9350611bbd818560208601611b7b565b611bc681611b89565b840191505092915050565b5f60a082019050611be45f830188611ae1565b611bf16020830187611ae1565b611bfe6040830186611b52565b8181036060830152611c108185611b99565b9050611c1f6080830184611ae1565b9695505050505050565b5f8060408385031215611c3f57611c3e611a05565b5b5f611c4c85828601611a28565b9250506020611c5d85828601611a28565b9150509250929050565b611c7081611b41565b8114611c7a575f80fd5b50565b5f81359050611c8b81611c67565b92915050565b5f8060408385031215611ca757611ca6611a05565b5b5f611cb485828601611c7d565b9250506020611cc585828601611a28565b9150509250929050565b5f602082019050611ce25f830184611b52565b92915050565b5f8060408385031215611cfe57611cfd611a05565b5b5f611d0b85828601611a28565b9250506020611d1c85828601611c7d565b9150509250929050565b5f606082019050611d395f830186611ae1565b611d466020830185611ae1565b611d536040830184611ae1565b949350505050565b5f602082019050611d6e5f830184611ae1565b92915050565b5f611d7e82611b41565b9050919050565b611d8e81611d74565b8114611d98575f80fd5b50565b5f81359050611da981611d85565b92915050565b5f805f8060808587031215611dc757611dc6611a05565b5b5f611dd487828801611d9b565b9450506020611de587828801611d9b565b9350506040611df687828801611a28565b9250506060611e0787828801611a28565b91505092959194509250565b5f60208284031215611e2857611e27611a05565b5b5f611e3584828501611c7d565b91505092915050565b5f81519050919050565b5f82825260208201905092915050565b5f819050602082019050919050565b611e7081611a09565b82525050565b611e7f81611b41565b82525050565b5f82825260208201905092915050565b5f611e9f82611b61565b611ea98185611e85565b9350611eb9818560208601611b7b565b611ec281611b89565b840191505092915050565b5f60a083015f830151611ee25f860182611e67565b506020830151611ef56020860182611e67565b506040830151611f086040860182611e76565b5060608301518482036060860152611f208282611e95565b9150506080830151611f356080860182611e67565b508091505092915050565b5f611f4b8383611ecd565b905092915050565b5f602082019050919050565b5f611f6982611e3e565b611f738185611e48565b935083602082028501611f8585611e58565b805f5b85811015611fc05784840389528151611fa18582611f40565b9450611fac83611f53565b925060208a01995050600181019050611f88565b50829750879550505050505092915050565b5f6020820190508181035f830152611fea8184611f5f565b905092915050565b7f4e487b71000000000000000000000000000000000000000000000000000000005f52602260045260245ffd5b5f600282049050600182168061203657607f821691505b60208210810361204957612048611ff2565b5b50919050565b7f4e487b71000000000000000000000000000000000000000000000000000000005f52603260045260245ffd5b7f5265656e7472616e637947756172643a207265656e7472616e742063616c6c005f82015250565b5f6120b0601f83611b6b565b91506120bb8261207c565b602082019050919050565b5f6020820190508181035f8301526120dd816120a4565b9050919050565b7f576974686472617720616d6f756e7420657863656564732062616c616e6365005f82015250565b5f612118601f83611b6b565b9150612123826120e4565b602082019050919050565b5f6020820190508181035f8301526121458161210c565b9050919050565b7f4c6f636b206973206163746976650000000000000000000000000000000000005f82015250565b5f612180600e83611b6b565b915061218b8261214c565b602082019050919050565b5f6020820190508181035f8301526121ad81612174565b9050919050565b5f6040820190506121c75f830185611b52565b6121d46020830184611ae1565b9392505050565b5f8115159050919050565b6121ef816121db565b81146121f9575f80fd5b50565b5f8151905061220a816121e6565b92915050565b5f6020828403121561222557612224611a05565b5b5f612232848285016121fc565b91505092915050565b7f4e487b71000000000000000000000000000000000000000000000000000000005f52601160045260245ffd5b5f61227282611a09565b915061227d83611a09565b92508282039050818111156122955761229461223b565b5b92915050565b5f815190506122a981611a12565b92915050565b5f602082840312156122c4576122c3611a05565b5b5f6122d18482850161229b565b91505092915050565b7f416d6f756e7420657863656564732062616c616e6365000000000000000000005f82015250565b5f61230e601683611b6b565b9150612319826122da565b602082019050919050565b5f6020820190508181035f83015261233b81612302565b9050919050565b7f43616e74207769746864726177206465706f736974656420746f6b656e7300005f82015250565b5f612376601e83611b6b565b915061238182612342565b602082019050919050565b5f6020820190508181035f8301526123a38161236a565b9050919050565b7f4e6f207265776172647320746f20636c61696d000000000000000000000000005f82015250565b5f6123de601383611b6b565b91506123e9826123aa565b602082019050919050565b5f6020820190508181035f83015261240b816123d2565b9050919050565b5f61241c82611a09565b91507fffffffffffffffffffffffffffffffffffffffffffffffffffffffffffffffff820361244e5761244d61223b565b5b600182019050919050565b7f416d6f756e742073686f756c642062652067726561746572207468616e2030215f82015250565b5f61248d602083611b6b565b915061249882612459565b602082019050919050565b5f6020820190508181035f8301526124ba81612481565b9050919050565b5f6060820190506124d45f830186611b52565b6124e16020830185611b52565b6124ee6040830184611ae1565b949350505050565b5f61250082611a09565b915061250b83611a09565b92508282019050808211156125235761252261223b565b5b92915050565b5f61253382611a09565b915061253e83611a09565b925082820261254c81611a09565b915082820484148315176125635761256261223b565b5b5092915050565b7f4f776e61626c653a206e6577206f776e657220697320746865207a65726f20615f8201527f6464726573730000000000000000000000000000000000000000000000000000602082015250565b5f6125c4602683611b6b565b91506125cf8261256a565b604082019050919050565b5f6020820190508181035f8301526125f1816125b8565b9050919050565b7f4f776e61626c653a2063616c6c6572206973206e6f7420746865206f776e65725f82015250565b5f61262c602083611b6b565b9150612637826125f8565b602082019050919050565b5f6020820190508181035f83015261265981612620565b9050919050565b7f4e487b71000000000000000000000000000000000000000000000000000000005f52601260045260245ffd5b5f61269782611a09565b91506126a283611a09565b9250826126b2576126b1612660565b5b828204905092915050565b7f4e487b71000000000000000000000000000000000000000000000000000000005f52604160045260245ffd5b5f819050815f5260205f209050919050565b5f6020601f8301049050919050565b5f82821b905092915050565b5f600883026127467fffffffffffffffffffffffffffffffffffffffffffffffffffffffffffffffff8261270b565b612750868361270b565b95508019841693508086168417925050509392505050565b5f61278261277d61277884611a09565b611a86565b611a09565b9050919050565b5f819050919050565b61279b83612768565b6127af6127a782612789565b848454612717565b825550505050565b5f90565b6127c36127b7565b6127ce818484612792565b505050565b5b818110156127f1576127e65f826127bb565b6001810190506127d4565b5050565b601f82111561283657612807816126ea565b612810846126fc565b8101602085101561281f578190505b61283361282b856126fc565b8301826127d3565b50505b505050565b5f82821c905092915050565b5f6128565f198460080261283b565b1980831691505092915050565b5f61286e8383612847565b9150826002028217905092915050565b61288782611b61565b67ffffffffffffffff8111156128a05761289f6126bd565b5b6128aa825461201f565b6128b58282856127f5565b5f60209050601f8311600181146128e6575f84156128d4578287015190505b6128de8582612863565b865550612945565b601f1984166128f4866126ea565b5f5b8281101561291b578489015182556001820191506020850194506020810190506128f6565b868310156129385784890151612934601f891682612847565b8355505b6001600288020188555050505b505050505050565b7f5361666545524332303a204552433230206f7065726174696f6e20646964206e5f8201527f6f74207375636365656400000000000000000000000000000000000000000000602082015250565b5f6129a7602a83611b6b565b91506129b28261294d565b604082019050919050565b5f6020820190508181035f8301526129d48161299b565b9050919050565b7f416464726573733a20696e73756666696369656e742062616c616e636520666f5f8201527f722063616c6c0000000000000000000000000000000000000000000000000000602082015250565b5f612a35602683611b6b565b9150612a40826129db565b604082019050919050565b5f6020820190508181035f830152612a6281612a29565b9050919050565b7f416464726573733a2063616c6c20746f206e6f6e2d636f6e74726163740000005f82015250565b5f612a9d601d83611b6b565b9150612aa882612a69565b602082019050919050565b5f6020820190508181035f830152612aca81612a91565b9050919050565b5f81519050919050565b5f81905092915050565b5f612aef82612ad1565b612af98185612adb565b9350612b09818560208601611b7b565b80840191505092915050565b5f612b208284612ae5565b915081905092915050565b5f6020820190508181035f830152612b438184611b99565b90509291505056fea26469706673582212201a4301554c6a037d4457eaef50598a1fa7d00358647722ab39856731bea8810064736f6c634300081a0033",
      "opcodes": "PUSH1 0x80 PUSH1 0x40 MSTORE PUSH8 0xDE0B6B3A7640000 PUSH1 0x2 SSTORE CALLVALUE DUP1 ISZERO PUSH2 0x1B JUMPI PUSH0 DUP1 REVERT JUMPDEST POP PUSH2 0x38 PUSH2 0x2D PUSH2 0x44 PUSH1 0x20 SHL PUSH1 0x20 SHR JUMP JUMPDEST PUSH2 0x4B PUSH1 0x20 SHL PUSH1 0x20 SHR JUMP JUMPDEST PUSH1 0x1 DUP1 DUP2 SWAP1 SSTORE POP PUSH2 0x10C JUMP JUMPDEST PUSH0 CALLER SWAP1 POP SWAP1 JUMP JUMPDEST PUSH0 DUP1 PUSH0 SWAP1 SLOAD SWAP1 PUSH2 0x100 EXP SWAP1 DIV PUSH20 0xFFFFFFFFFFFFFFFFFFFFFFFFFFFFFFFFFFFFFFFF AND SWAP1 POP DUP2 PUSH0 DUP1 PUSH2 0x100 EXP DUP2 SLOAD DUP2 PUSH20 0xFFFFFFFFFFFFFFFFFFFFFFFFFFFFFFFFFFFFFFFF MUL NOT AND SWAP1 DUP4 PUSH20 0xFFFFFFFFFFFFFFFFFFFFFFFFFFFFFFFFFFFFFFFF AND MUL OR SWAP1 SSTORE POP DUP2 PUSH20 0xFFFFFFFFFFFFFFFFFFFFFFFFFFFFFFFFFFFFFFFF AND DUP2 PUSH20 0xFFFFFFFFFFFFFFFFFFFFFFFFFFFFFFFFFFFFFFFF AND PUSH32 0x8BE0079C531659141344CD1FD0A4F28419497F9722A3DAAFE3B4186F6B6457E0 PUSH1 0x40 MLOAD PUSH1 0x40 MLOAD DUP1 SWAP2 SUB SWAP1 LOG3 POP POP JUMP JUMPDEST PUSH2 0x2B81 DUP1 PUSH2 0x119 PUSH0 CODECOPY PUSH0 RETURN INVALID PUSH1 0x80 PUSH1 0x40 MSTORE CALLVALUE DUP1 ISZERO PUSH2 0xF JUMPI PUSH0 DUP1 REVERT JUMPDEST POP PUSH1 0x4 CALLDATASIZE LT PUSH2 0xFE JUMPI PUSH0 CALLDATALOAD PUSH1 0xE0 SHR DUP1 PUSH4 0x98969E82 GT PUSH2 0x95 JUMPI DUP1 PUSH4 0xCF48BD2C GT PUSH2 0x64 JUMPI DUP1 PUSH4 0xCF48BD2C EQ PUSH2 0x2B0 JUMPI DUP1 PUSH4 0xE2BBB158 EQ PUSH2 0x2CE JUMPI DUP1 PUSH4 0xF2FDE38B EQ PUSH2 0x2EA JUMPI DUP1 PUSH4 0xF525CB68 EQ PUSH2 0x306 JUMPI PUSH2 0xFE JUMP JUMPDEST DUP1 PUSH4 0x98969E82 EQ PUSH2 0x218 JUMPI DUP1 PUSH4 0xAE169A50 EQ PUSH2 0x248 JUMPI DUP1 PUSH4 0xC20632BA EQ PUSH2 0x264 JUMPI DUP1 PUSH4 0xC326BF4F EQ PUSH2 0x280 JUMPI PUSH2 0xFE JUMP JUMPDEST DUP1 PUSH4 0x6EA056A9 GT PUSH2 0xD1 JUMPI DUP1 PUSH4 0x6EA056A9 EQ PUSH2 0x1A2 JUMPI DUP1 PUSH4 0x715018A6 EQ PUSH2 0x1BE JUMPI DUP1 PUSH4 0x8DA5CB5B EQ PUSH2 0x1C8 JUMPI DUP1 PUSH4 0x93F1A40B EQ PUSH2 0x1E6 JUMPI PUSH2 0xFE JUMP JUMPDEST DUP1 PUSH4 0x1526FE27 EQ PUSH2 0x102 JUMPI DUP1 PUSH4 0x34C1F944 EQ PUSH2 0x136 JUMPI DUP1 PUSH4 0x39739B99 EQ PUSH2 0x16A JUMPI DUP1 PUSH4 0x441A3E70 EQ PUSH2 0x186 JUMPI JUMPDEST PUSH0 DUP1 REVERT JUMPDEST PUSH2 0x11C PUSH1 0x4 DUP1 CALLDATASIZE SUB DUP2 ADD SWAP1 PUSH2 0x117 SWAP2 SWAP1 PUSH2 0x1A3C JUMP JUMPDEST PUSH2 0x324 JUMP JUMPDEST PUSH1 0x40 MLOAD PUSH2 0x12D SWAP6 SWAP5 SWAP4 SWAP3 SWAP2 SWAP1 PUSH2 0x1AF0 JUMP JUMPDEST PUSH1 0x40 MLOAD DUP1 SWAP2 SUB SWAP1 RETURN JUMPDEST PUSH2 0x150 PUSH1 0x4 DUP1 CALLDATASIZE SUB DUP2 ADD SWAP1 PUSH2 0x14B SWAP2 SWAP1 PUSH2 0x1A3C JUMP JUMPDEST PUSH2 0x3A3 JUMP JUMPDEST PUSH1 0x40 MLOAD PUSH2 0x161 SWAP6 SWAP5 SWAP4 SWAP3 SWAP2 SWAP1 PUSH2 0x1BD1 JUMP JUMPDEST PUSH1 0x40 MLOAD DUP1 SWAP2 SUB SWAP1 RETURN JUMPDEST PUSH2 0x184 PUSH1 0x4 DUP1 CALLDATASIZE SUB DUP2 ADD SWAP1 PUSH2 0x17F SWAP2 SWAP1 PUSH2 0x1C29 JUMP JUMPDEST PUSH2 0x489 JUMP JUMPDEST STOP JUMPDEST PUSH2 0x1A0 PUSH1 0x4 DUP1 CALLDATASIZE SUB DUP2 ADD SWAP1 PUSH2 0x19B SWAP2 SWAP1 PUSH2 0x1C29 JUMP JUMPDEST PUSH2 0x4C2 JUMP JUMPDEST STOP JUMPDEST PUSH2 0x1BC PUSH1 0x4 DUP1 CALLDATASIZE SUB DUP2 ADD SWAP1 PUSH2 0x1B7 SWAP2 SWAP1 PUSH2 0x1C91 JUMP JUMPDEST PUSH2 0x8AB JUMP JUMPDEST STOP JUMPDEST PUSH2 0x1C6 PUSH2 0xA2C JUMP JUMPDEST STOP JUMPDEST PUSH2 0x1D0 PUSH2 0xA3F JUMP JUMPDEST PUSH1 0x40 MLOAD PUSH2 0x1DD SWAP2 SWAP1 PUSH2 0x1CCF JUMP JUMPDEST PUSH1 0x40 MLOAD DUP1 SWAP2 SUB SWAP1 RETURN JUMPDEST PUSH2 0x200 PUSH1 0x4 DUP1 CALLDATASIZE SUB DUP2 ADD SWAP1 PUSH2 0x1FB SWAP2 SWAP1 PUSH2 0x1CE8 JUMP JUMPDEST PUSH2 0xA66 JUMP JUMPDEST PUSH1 0x40 MLOAD PUSH2 0x20F SWAP4 SWAP3 SWAP2 SWAP1 PUSH2 0x1D26 JUMP JUMPDEST PUSH1 0x40 MLOAD DUP1 SWAP2 SUB SWAP1 RETURN JUMPDEST PUSH2 0x232 PUSH1 0x4 DUP1 CALLDATASIZE SUB DUP2 ADD SWAP1 PUSH2 0x22D SWAP2 SWAP1 PUSH2 0x1CE8 JUMP JUMPDEST PUSH2 0xA97 JUMP JUMPDEST PUSH1 0x40 MLOAD PUSH2 0x23F SWAP2 SWAP1 PUSH2 0x1D5B JUMP JUMPDEST PUSH1 0x40 MLOAD DUP1 SWAP2 SUB SWAP1 RETURN JUMPDEST PUSH2 0x262 PUSH1 0x4 DUP1 CALLDATASIZE SUB DUP2 ADD SWAP1 PUSH2 0x25D SWAP2 SWAP1 PUSH2 0x1A3C JUMP JUMPDEST PUSH2 0xAFA JUMP JUMPDEST STOP JUMPDEST PUSH2 0x27E PUSH1 0x4 DUP1 CALLDATASIZE SUB DUP2 ADD SWAP1 PUSH2 0x279 SWAP2 SWAP1 PUSH2 0x1DAF JUMP JUMPDEST PUSH2 0xD45 JUMP JUMPDEST STOP JUMPDEST PUSH2 0x29A PUSH1 0x4 DUP1 CALLDATASIZE SUB DUP2 ADD SWAP1 PUSH2 0x295 SWAP2 SWAP1 PUSH2 0x1E13 JUMP JUMPDEST PUSH2 0xE8F JUMP JUMPDEST PUSH1 0x40 MLOAD PUSH2 0x2A7 SWAP2 SWAP1 PUSH2 0x1D5B JUMP JUMPDEST PUSH1 0x40 MLOAD DUP1 SWAP2 SUB SWAP1 RETURN JUMPDEST PUSH2 0x2B8 PUSH2 0xEA4 JUMP JUMPDEST PUSH1 0x40 MLOAD PUSH2 0x2C5 SWAP2 SWAP1 PUSH2 0x1FD2 JUMP JUMPDEST PUSH1 0x40 MLOAD DUP1 SWAP2 SUB SWAP1 RETURN JUMPDEST PUSH2 0x2E8 PUSH1 0x4 DUP1 CALLDATASIZE SUB DUP2 ADD SWAP1 PUSH2 0x2E3 SWAP2 SWAP1 PUSH2 0x1C29 JUMP JUMPDEST PUSH2 0x1002 JUMP JUMPDEST STOP JUMPDEST PUSH2 0x304 PUSH1 0x4 DUP1 CALLDATASIZE SUB DUP2 ADD SWAP1 PUSH2 0x2FF SWAP2 SWAP1 PUSH2 0x1E13 JUMP JUMPDEST PUSH2 0x13C0 JUMP JUMPDEST STOP JUMPDEST PUSH2 0x30E PUSH2 0x1442 JUMP JUMPDEST PUSH1 0x40 MLOAD PUSH2 0x31B SWAP2 SWAP1 PUSH2 0x1D5B JUMP JUMPDEST PUSH1 0x40 MLOAD DUP1 SWAP2 SUB SWAP1 RETURN JUMPDEST PUSH1 0x4 DUP2 DUP2 SLOAD DUP2 LT PUSH2 0x333 JUMPI PUSH0 DUP1 REVERT JUMPDEST SWAP1 PUSH0 MSTORE PUSH1 0x20 PUSH0 KECCAK256 SWAP1 PUSH1 0x5 MUL ADD PUSH0 SWAP2 POP SWAP1 POP DUP1 PUSH0 ADD PUSH0 SWAP1 SLOAD SWAP1 PUSH2 0x100 EXP SWAP1 DIV PUSH20 0xFFFFFFFFFFFFFFFFFFFFFFFFFFFFFFFFFFFFFFFF AND SWAP1 DUP1 PUSH1 0x1 ADD PUSH0 SWAP1 SLOAD SWAP1 PUSH2 0x100 EXP SWAP1 DIV PUSH20 0xFFFFFFFFFFFFFFFFFFFFFFFFFFFFFFFFFFFFFFFF AND SWAP1 DUP1 PUSH1 0x2 ADD SLOAD SWAP1 DUP1 PUSH1 0x3 ADD SLOAD SWAP1 DUP1 PUSH1 0x4 ADD SLOAD SWAP1 POP DUP6 JUMP JUMPDEST PUSH1 0x7 DUP2 DUP2 SLOAD DUP2 LT PUSH2 0x3B2 JUMPI PUSH0 DUP1 REVERT JUMPDEST SWAP1 PUSH0 MSTORE PUSH1 0x20 PUSH0 KECCAK256 SWAP1 PUSH1 0x5 MUL ADD PUSH0 SWAP2 POP SWAP1 POP DUP1 PUSH0 ADD SLOAD SWAP1 DUP1 PUSH1 0x1 ADD SLOAD SWAP1 DUP1 PUSH1 0x2 ADD PUSH0 SWAP1 SLOAD SWAP1 PUSH2 0x100 EXP SWAP1 DIV PUSH20 0xFFFFFFFFFFFFFFFFFFFFFFFFFFFFFFFFFFFFFFFF AND SWAP1 DUP1 PUSH1 0x3 ADD DUP1 SLOAD PUSH2 0x402 SWAP1 PUSH2 0x201F JUMP JUMPDEST DUP1 PUSH1 0x1F ADD PUSH1 0x20 DUP1 SWAP2 DIV MUL PUSH1 0x20 ADD PUSH1 0x40 MLOAD SWAP1 DUP2 ADD PUSH1 0x40 MSTORE DUP1 SWAP3 SWAP2 SWAP1 DUP2 DUP2 MSTORE PUSH1 0x20 ADD DUP3 DUP1 SLOAD PUSH2 0x42E SWAP1 PUSH2 0x201F JUMP JUMPDEST DUP1 ISZERO PUSH2 0x479 JUMPI DUP1 PUSH1 0x1F LT PUSH2 0x450 JUMPI PUSH2 0x100 DUP1 DUP4 SLOAD DIV MUL DUP4 MSTORE SWAP2 PUSH1 0x20 ADD SWAP2 PUSH2 0x479 JUMP JUMPDEST DUP3 ADD SWAP2 SWAP1 PUSH0 MSTORE PUSH1 0x20 PUSH0 KECCAK256 SWAP1 JUMPDEST DUP2 SLOAD DUP2 MSTORE SWAP1 PUSH1 0x1 ADD SWAP1 PUSH1 0x20 ADD DUP1 DUP4 GT PUSH2 0x45C JUMPI DUP3 SWAP1 SUB PUSH1 0x1F AND DUP3 ADD SWAP2 JUMPDEST POP POP POP POP POP SWAP1 DUP1 PUSH1 0x4 ADD SLOAD SWAP1 POP DUP6 JUMP JUMPDEST PUSH2 0x491 PUSH2 0x1448 JUMP JUMPDEST PUSH0 PUSH1 0x4 DUP4 DUP2 SLOAD DUP2 LT PUSH2 0x4A6 JUMPI PUSH2 0x4A5 PUSH2 0x204F JUMP JUMPDEST JUMPDEST SWAP1 PUSH0 MSTORE PUSH1 0x20 PUSH0 KECCAK256 SWAP1 PUSH1 0x5 MUL ADD SWAP1 POP DUP2 DUP2 PUSH1 0x3 ADD DUP2 SWAP1 SSTORE POP POP POP POP JUMP JUMPDEST PUSH1 0x2 PUSH1 0x1 SLOAD SUB PUSH2 0x507 JUMPI PUSH1 0x40 MLOAD PUSH32 0x8C379A000000000000000000000000000000000000000000000000000000000 DUP2 MSTORE PUSH1 0x4 ADD PUSH2 0x4FE SWAP1 PUSH2 0x20C6 JUMP JUMPDEST PUSH1 0x40 MLOAD DUP1 SWAP2 SUB SWAP1 REVERT JUMPDEST PUSH1 0x2 PUSH1 0x1 DUP2 SWAP1 SSTORE POP PUSH0 PUSH1 0x4 DUP4 DUP2 SLOAD DUP2 LT PUSH2 0x524 JUMPI PUSH2 0x523 PUSH2 0x204F JUMP JUMPDEST JUMPDEST SWAP1 PUSH0 MSTORE PUSH1 0x20 PUSH0 KECCAK256 SWAP1 PUSH1 0x5 MUL ADD SWAP1 POP PUSH0 PUSH1 0x6 PUSH0 DUP6 DUP2 MSTORE PUSH1 0x20 ADD SWAP1 DUP2 MSTORE PUSH1 0x20 ADD PUSH0 KECCAK256 PUSH0 CALLER PUSH20 0xFFFFFFFFFFFFFFFFFFFFFFFFFFFFFFFFFFFFFFFF AND PUSH20 0xFFFFFFFFFFFFFFFFFFFFFFFFFFFFFFFFFFFFFFFF AND DUP2 MSTORE PUSH1 0x20 ADD SWAP1 DUP2 MSTORE PUSH1 0x20 ADD PUSH0 KECCAK256 SWAP1 POP DUP3 DUP2 PUSH0 ADD SLOAD LT ISZERO PUSH2 0x5C7 JUMPI PUSH1 0x40 MLOAD PUSH32 0x8C379A000000000000000000000000000000000000000000000000000000000 DUP2 MSTORE PUSH1 0x4 ADD PUSH2 0x5BE SWAP1 PUSH2 0x212E JUMP JUMPDEST PUSH1 0x40 MLOAD DUP1 SWAP2 SUB SWAP1 REVERT JUMPDEST TIMESTAMP DUP2 PUSH1 0x2 ADD SLOAD GT ISZERO PUSH2 0x60E JUMPI PUSH1 0x40 MLOAD PUSH32 0x8C379A000000000000000000000000000000000000000000000000000000000 DUP2 MSTORE PUSH1 0x4 ADD PUSH2 0x605 SWAP1 PUSH2 0x2196 JUMP JUMPDEST PUSH1 0x40 MLOAD DUP1 SWAP2 SUB SWAP1 REVERT JUMPDEST PUSH0 PUSH2 0x619 DUP3 DUP7 PUSH2 0x14C6 JUMP JUMPDEST SWAP1 POP PUSH0 DUP2 GT ISZERO PUSH2 0x704 JUMPI DUP3 PUSH1 0x1 ADD PUSH0 SWAP1 SLOAD SWAP1 PUSH2 0x100 EXP SWAP1 DIV PUSH20 0xFFFFFFFFFFFFFFFFFFFFFFFFFFFFFFFFFFFFFFFF AND PUSH20 0xFFFFFFFFFFFFFFFFFFFFFFFFFFFFFFFFFFFFFFFF AND PUSH4 0xA9059CBB CALLER DUP4 PUSH1 0x40 MLOAD DUP4 PUSH4 0xFFFFFFFF AND PUSH1 0xE0 SHL DUP2 MSTORE PUSH1 0x4 ADD PUSH2 0x681 SWAP3 SWAP2 SWAP1 PUSH2 0x21B4 JUMP JUMPDEST PUSH1 0x20 PUSH1 0x40 MLOAD DUP1 DUP4 SUB DUP2 PUSH0 DUP8 GAS CALL ISZERO DUP1 ISZERO PUSH2 0x69D JUMPI RETURNDATASIZE PUSH0 DUP1 RETURNDATACOPY RETURNDATASIZE PUSH0 REVERT JUMPDEST POP POP POP POP PUSH1 0x40 MLOAD RETURNDATASIZE PUSH1 0x1F NOT PUSH1 0x1F DUP3 ADD AND DUP3 ADD DUP1 PUSH1 0x40 MSTORE POP DUP2 ADD SWAP1 PUSH2 0x6C1 SWAP2 SWAP1 PUSH2 0x2210 JUMP JUMPDEST POP PUSH2 0x703 DUP6 DUP3 CALLER PUSH1 0x40 MLOAD DUP1 PUSH1 0x40 ADD PUSH1 0x40 MSTORE DUP1 PUSH1 0x5 DUP2 MSTORE PUSH1 0x20 ADD PUSH32 0x436C61696D000000000000000000000000000000000000000000000000000000 DUP2 MSTORE POP PUSH2 0x155E JUMP JUMPDEST JUMPDEST PUSH0 DUP5 GT ISZERO PUSH2 0x853 JUMPI DUP4 DUP3 PUSH0 ADD PUSH0 DUP3 DUP3 SLOAD PUSH2 0x71E SWAP2 SWAP1 PUSH2 0x2268 JUMP JUMPDEST SWAP3 POP POP DUP2 SWAP1 SSTORE POP DUP4 DUP4 PUSH1 0x2 ADD PUSH0 DUP3 DUP3 SLOAD PUSH2 0x738 SWAP2 SWAP1 PUSH2 0x2268 JUMP JUMPDEST SWAP3 POP POP DUP2 SWAP1 SSTORE POP DUP4 PUSH1 0x5 PUSH0 DUP6 PUSH0 ADD PUSH0 SWAP1 SLOAD SWAP1 PUSH2 0x100 EXP SWAP1 DIV PUSH20 0xFFFFFFFFFFFFFFFFFFFFFFFFFFFFFFFFFFFFFFFF AND PUSH20 0xFFFFFFFFFFFFFFFFFFFFFFFFFFFFFFFFFFFFFFFF AND PUSH20 0xFFFFFFFFFFFFFFFFFFFFFFFFFFFFFFFFFFFFFFFF AND DUP2 MSTORE PUSH1 0x20 ADD SWAP1 DUP2 MSTORE PUSH1 0x20 ADD PUSH0 KECCAK256 PUSH0 DUP3 DUP3 SLOAD PUSH2 0x7AD SWAP2 SWAP1 PUSH2 0x2268 JUMP JUMPDEST SWAP3 POP POP DUP2 SWAP1 SSTORE POP DUP3 PUSH0 ADD PUSH0 SWAP1 SLOAD SWAP1 PUSH2 0x100 EXP SWAP1 DIV PUSH20 0xFFFFFFFFFFFFFFFFFFFFFFFFFFFFFFFFFFFFFFFF AND PUSH20 0xFFFFFFFFFFFFFFFFFFFFFFFFFFFFFFFFFFFFFFFF AND PUSH4 0xA9059CBB CALLER DUP7 PUSH1 0x40 MLOAD DUP4 PUSH4 0xFFFFFFFF AND PUSH1 0xE0 SHL DUP2 MSTORE PUSH1 0x4 ADD PUSH2 0x811 SWAP3 SWAP2 SWAP1 PUSH2 0x21B4 JUMP JUMPDEST PUSH1 0x20 PUSH1 0x40 MLOAD DUP1 DUP4 SUB DUP2 PUSH0 DUP8 GAS CALL ISZERO DUP1 ISZERO PUSH2 0x82D JUMPI RETURNDATASIZE PUSH0 DUP1 RETURNDATACOPY RETURNDATASIZE PUSH0 REVERT JUMPDEST POP POP POP POP PUSH1 0x40 MLOAD RETURNDATASIZE PUSH1 0x1F NOT PUSH1 0x1F DUP3 ADD AND DUP3 ADD DUP1 PUSH1 0x40 MSTORE POP DUP2 ADD SWAP1 PUSH2 0x851 SWAP2 SWAP1 PUSH2 0x2210 JUMP JUMPDEST POP JUMPDEST TIMESTAMP DUP3 PUSH1 0x1 ADD DUP2 SWAP1 SSTORE POP PUSH2 0x89D DUP6 DUP6 CALLER PUSH1 0x40 MLOAD DUP1 PUSH1 0x40 ADD PUSH1 0x40 MSTORE DUP1 PUSH1 0x8 DUP2 MSTORE PUSH1 0x20 ADD PUSH32 0x5769746864726177000000000000000000000000000000000000000000000000 DUP2 MSTORE POP PUSH2 0x155E JUMP JUMPDEST POP POP POP PUSH1 0x1 DUP1 DUP2 SWAP1 SSTORE POP POP POP JUMP JUMPDEST PUSH2 0x8B3 PUSH2 0x1448 JUMP JUMPDEST PUSH0 DUP3 PUSH20 0xFFFFFFFFFFFFFFFFFFFFFFFFFFFFFFFFFFFFFFFF AND PUSH4 0x70A08231 ADDRESS PUSH1 0x40 MLOAD DUP3 PUSH4 0xFFFFFFFF AND PUSH1 0xE0 SHL DUP2 MSTORE PUSH1 0x4 ADD PUSH2 0x8ED SWAP2 SWAP1 PUSH2 0x1CCF JUMP JUMPDEST PUSH1 0x20 PUSH1 0x40 MLOAD DUP1 DUP4 SUB DUP2 DUP7 GAS STATICCALL ISZERO DUP1 ISZERO PUSH2 0x908 JUMPI RETURNDATASIZE PUSH0 DUP1 RETURNDATACOPY RETURNDATASIZE PUSH0 REVERT JUMPDEST POP POP POP POP PUSH1 0x40 MLOAD RETURNDATASIZE PUSH1 0x1F NOT PUSH1 0x1F DUP3 ADD AND DUP3 ADD DUP1 PUSH1 0x40 MSTORE POP DUP2 ADD SWAP1 PUSH2 0x92C SWAP2 SWAP1 PUSH2 0x22AF JUMP JUMPDEST SWAP1 POP DUP1 DUP3 GT ISZERO PUSH2 0x971 JUMPI PUSH1 0x40 MLOAD PUSH32 0x8C379A000000000000000000000000000000000000000000000000000000000 DUP2 MSTORE PUSH1 0x4 ADD PUSH2 0x968 SWAP1 PUSH2 0x2324 JUMP JUMPDEST PUSH1 0x40 MLOAD DUP1 SWAP2 SUB SWAP1 REVERT JUMPDEST PUSH1 0x5 PUSH0 DUP5 PUSH20 0xFFFFFFFFFFFFFFFFFFFFFFFFFFFFFFFFFFFFFFFF AND PUSH20 0xFFFFFFFFFFFFFFFFFFFFFFFFFFFFFFFFFFFFFFFF AND DUP2 MSTORE PUSH1 0x20 ADD SWAP1 DUP2 MSTORE PUSH1 0x20 ADD PUSH0 KECCAK256 SLOAD DUP3 DUP3 PUSH2 0x9BB SWAP2 SWAP1 PUSH2 0x2268 JUMP JUMPDEST LT ISZERO PUSH2 0x9FC JUMPI PUSH1 0x40 MLOAD PUSH32 0x8C379A000000000000000000000000000000000000000000000000000000000 DUP2 MSTORE PUSH1 0x4 ADD PUSH2 0x9F3 SWAP1 PUSH2 0x238C JUMP JUMPDEST PUSH1 0x40 MLOAD DUP1 SWAP2 SUB SWAP1 REVERT JUMPDEST PUSH2 0xA27 CALLER DUP4 DUP6 PUSH20 0xFFFFFFFFFFFFFFFFFFFFFFFFFFFFFFFFFFFFFFFF AND PUSH2 0x1643 SWAP1 SWAP3 SWAP2 SWAP1 PUSH4 0xFFFFFFFF AND JUMP JUMPDEST POP POP POP JUMP JUMPDEST PUSH2 0xA34 PUSH2 0x1448 JUMP JUMPDEST PUSH2 0xA3D PUSH0 PUSH2 0x16C9 JUMP JUMPDEST JUMP JUMPDEST PUSH0 DUP1 PUSH0 SWAP1 SLOAD SWAP1 PUSH2 0x100 EXP SWAP1 DIV PUSH20 0xFFFFFFFFFFFFFFFFFFFFFFFFFFFFFFFFFFFFFFFF AND SWAP1 POP SWAP1 JUMP JUMPDEST PUSH1 0x6 PUSH1 0x20 MSTORE DUP2 PUSH0 MSTORE PUSH1 0x40 PUSH0 KECCAK256 PUSH1 0x20 MSTORE DUP1 PUSH0 MSTORE PUSH1 0x40 PUSH0 KECCAK256 PUSH0 SWAP2 POP SWAP2 POP POP DUP1 PUSH0 ADD SLOAD SWAP1 DUP1 PUSH1 0x1 ADD SLOAD SWAP1 DUP1 PUSH1 0x2 ADD SLOAD SWAP1 POP DUP4 JUMP JUMPDEST PUSH0 DUP1 PUSH1 0x6 PUSH0 DUP6 DUP2 MSTORE PUSH1 0x20 ADD SWAP1 DUP2 MSTORE PUSH1 0x20 ADD PUSH0 KECCAK256 PUSH0 DUP5 PUSH20 0xFFFFFFFFFFFFFFFFFFFFFFFFFFFFFFFFFFFFFFFF AND PUSH20 0xFFFFFFFFFFFFFFFFFFFFFFFFFFFFFFFFFFFFFFFF AND DUP2 MSTORE PUSH1 0x20 ADD SWAP1 DUP2 MSTORE PUSH1 0x20 ADD PUSH0 KECCAK256 SWAP1 POP PUSH2 0xAF1 DUP2 DUP6 PUSH2 0x14C6 JUMP JUMPDEST SWAP2 POP POP SWAP3 SWAP2 POP POP JUMP JUMPDEST PUSH1 0x2 PUSH1 0x1 SLOAD SUB PUSH2 0xB3F JUMPI PUSH1 0x40 MLOAD PUSH32 0x8C379A000000000000000000000000000000000000000000000000000000000 DUP2 MSTORE PUSH1 0x4 ADD PUSH2 0xB36 SWAP1 PUSH2 0x20C6 JUMP JUMPDEST PUSH1 0x40 MLOAD DUP1 SWAP2 SUB SWAP1 REVERT JUMPDEST PUSH1 0x2 PUSH1 0x1 DUP2 SWAP1 SSTORE POP PUSH0 PUSH1 0x4 DUP3 DUP2 SLOAD DUP2 LT PUSH2 0xB5C JUMPI PUSH2 0xB5B PUSH2 0x204F JUMP JUMPDEST JUMPDEST SWAP1 PUSH0 MSTORE PUSH1 0x20 PUSH0 KECCAK256 SWAP1 PUSH1 0x5 MUL ADD SWAP1 POP PUSH0 PUSH1 0x6 PUSH0 DUP5 DUP2 MSTORE PUSH1 0x20 ADD SWAP1 DUP2 MSTORE PUSH1 0x20 ADD PUSH0 KECCAK256 PUSH0 CALLER PUSH20 0xFFFFFFFFFFFFFFFFFFFFFFFFFFFFFFFFFFFFFFFF AND PUSH20 0xFFFFFFFFFFFFFFFFFFFFFFFFFFFFFFFFFFFFFFFF AND DUP2 MSTORE PUSH1 0x20 ADD SWAP1 DUP2 MSTORE PUSH1 0x20 ADD PUSH0 KECCAK256 SWAP1 POP TIMESTAMP DUP2 PUSH1 0x2 ADD SLOAD GT ISZERO PUSH2 0xC00 JUMPI PUSH1 0x40 MLOAD PUSH32 0x8C379A000000000000000000000000000000000000000000000000000000000 DUP2 MSTORE PUSH1 0x4 ADD PUSH2 0xBF7 SWAP1 PUSH2 0x2196 JUMP JUMPDEST PUSH1 0x40 MLOAD DUP1 SWAP2 SUB SWAP1 REVERT JUMPDEST PUSH0 PUSH2 0xC0B DUP3 DUP6 PUSH2 0x14C6 JUMP JUMPDEST SWAP1 POP PUSH0 DUP2 GT PUSH2 0xC4F JUMPI PUSH1 0x40 MLOAD PUSH32 0x8C379A000000000000000000000000000000000000000000000000000000000 DUP2 MSTORE PUSH1 0x4 ADD PUSH2 0xC46 SWAP1 PUSH2 0x23F4 JUMP JUMPDEST PUSH1 0x40 MLOAD DUP1 SWAP2 SUB SWAP1 REVERT JUMPDEST TIMESTAMP DUP3 PUSH1 0x1 ADD DUP2 SWAP1 SSTORE POP DUP3 PUSH1 0x1 ADD PUSH0 SWAP1 SLOAD SWAP1 PUSH2 0x100 EXP SWAP1 DIV PUSH20 0xFFFFFFFFFFFFFFFFFFFFFFFFFFFFFFFFFFFFFFFF AND PUSH20 0xFFFFFFFFFFFFFFFFFFFFFFFFFFFFFFFFFFFFFFFF AND PUSH4 0xA9059CBB CALLER DUP4 PUSH1 0x40 MLOAD DUP4 PUSH4 0xFFFFFFFF AND PUSH1 0xE0 SHL DUP2 MSTORE PUSH1 0x4 ADD PUSH2 0xCB6 SWAP3 SWAP2 SWAP1 PUSH2 0x21B4 JUMP JUMPDEST PUSH1 0x20 PUSH1 0x40 MLOAD DUP1 DUP4 SUB DUP2 PUSH0 DUP8 GAS CALL ISZERO DUP1 ISZERO PUSH2 0xCD2 JUMPI RETURNDATASIZE PUSH0 DUP1 RETURNDATACOPY RETURNDATASIZE PUSH0 REVERT JUMPDEST POP POP POP POP PUSH1 0x40 MLOAD RETURNDATASIZE PUSH1 0x1F NOT PUSH1 0x1F DUP3 ADD AND DUP3 ADD DUP1 PUSH1 0x40 MSTORE POP DUP2 ADD SWAP1 PUSH2 0xCF6 SWAP2 SWAP1 PUSH2 0x2210 JUMP JUMPDEST POP PUSH2 0xD38 DUP5 DUP3 CALLER PUSH1 0x40 MLOAD DUP1 PUSH1 0x40 ADD PUSH1 0x40 MSTORE DUP1 PUSH1 0x5 DUP2 MSTORE PUSH1 0x20 ADD PUSH32 0x436C61696D000000000000000000000000000000000000000000000000000000 DUP2 MSTORE POP PUSH2 0x155E JUMP JUMPDEST POP POP POP PUSH1 0x1 DUP1 DUP2 SWAP1 SSTORE POP POP JUMP JUMPDEST PUSH2 0xD4D PUSH2 0x1448 JUMP JUMPDEST PUSH1 0x4 PUSH1 0x40 MLOAD DUP1 PUSH1 0xA0 ADD PUSH1 0x40 MSTORE DUP1 DUP7 PUSH20 0xFFFFFFFFFFFFFFFFFFFFFFFFFFFFFFFFFFFFFFFF AND DUP2 MSTORE PUSH1 0x20 ADD DUP6 PUSH20 0xFFFFFFFFFFFFFFFFFFFFFFFFFFFFFFFFFFFFFFFF AND DUP2 MSTORE PUSH1 0x20 ADD PUSH0 DUP2 MSTORE PUSH1 0x20 ADD DUP5 DUP2 MSTORE PUSH1 0x20 ADD DUP4 DUP2 MSTORE POP SWAP1 DUP1 PUSH1 0x1 DUP2 SLOAD ADD DUP1 DUP3 SSTORE DUP1 SWAP2 POP POP PUSH1 0x1 SWAP1 SUB SWAP1 PUSH0 MSTORE PUSH1 0x20 PUSH0 KECCAK256 SWAP1 PUSH1 0x5 MUL ADD PUSH0 SWAP1 SWAP2 SWAP1 SWAP2 SWAP1 SWAP2 POP PUSH0 DUP3 ADD MLOAD DUP2 PUSH0 ADD PUSH0 PUSH2 0x100 EXP DUP2 SLOAD DUP2 PUSH20 0xFFFFFFFFFFFFFFFFFFFFFFFFFFFFFFFFFFFFFFFF MUL NOT AND SWAP1 DUP4 PUSH20 0xFFFFFFFFFFFFFFFFFFFFFFFFFFFFFFFFFFFFFFFF AND MUL OR SWAP1 SSTORE POP PUSH1 0x20 DUP3 ADD MLOAD DUP2 PUSH1 0x1 ADD PUSH0 PUSH2 0x100 EXP DUP2 SLOAD DUP2 PUSH20 0xFFFFFFFFFFFFFFFFFFFFFFFFFFFFFFFFFFFFFFFF MUL NOT AND SWAP1 DUP4 PUSH20 0xFFFFFFFFFFFFFFFFFFFFFFFFFFFFFFFFFFFFFFFF AND MUL OR SWAP1 SSTORE POP PUSH1 0x40 DUP3 ADD MLOAD DUP2 PUSH1 0x2 ADD SSTORE PUSH1 0x60 DUP3 ADD MLOAD DUP2 PUSH1 0x3 ADD SSTORE PUSH1 0x80 DUP3 ADD MLOAD DUP2 PUSH1 0x4 ADD SSTORE POP POP PUSH1 0x3 PUSH0 DUP2 SLOAD DUP1 SWAP3 SWAP2 SWAP1 PUSH2 0xE84 SWAP1 PUSH2 0x2412 JUMP JUMPDEST SWAP2 SWAP1 POP SSTORE POP POP POP POP POP JUMP JUMPDEST PUSH1 0x5 PUSH1 0x20 MSTORE DUP1 PUSH0 MSTORE PUSH1 0x40 PUSH0 KECCAK256 PUSH0 SWAP2 POP SWAP1 POP SLOAD DUP2 JUMP JUMPDEST PUSH1 0x60 PUSH1 0x7 DUP1 SLOAD DUP1 PUSH1 0x20 MUL PUSH1 0x20 ADD PUSH1 0x40 MLOAD SWAP1 DUP2 ADD PUSH1 0x40 MSTORE DUP1 SWAP3 SWAP2 SWAP1 DUP2 DUP2 MSTORE PUSH1 0x20 ADD PUSH0 SWAP1 JUMPDEST DUP3 DUP3 LT ISZERO PUSH2 0xFF9 JUMPI DUP4 DUP3 SWAP1 PUSH0 MSTORE PUSH1 0x20 PUSH0 KECCAK256 SWAP1 PUSH1 0x5 MUL ADD PUSH1 0x40 MLOAD DUP1 PUSH1 0xA0 ADD PUSH1 0x40 MSTORE SWAP1 DUP2 PUSH0 DUP3 ADD SLOAD DUP2 MSTORE PUSH1 0x20 ADD PUSH1 0x1 DUP3 ADD SLOAD DUP2 MSTORE PUSH1 0x20 ADD PUSH1 0x2 DUP3 ADD PUSH0 SWAP1 SLOAD SWAP1 PUSH2 0x100 EXP SWAP1 DIV PUSH20 0xFFFFFFFFFFFFFFFFFFFFFFFFFFFFFFFFFFFFFFFF AND PUSH20 0xFFFFFFFFFFFFFFFFFFFFFFFFFFFFFFFFFFFFFFFF AND PUSH20 0xFFFFFFFFFFFFFFFFFFFFFFFFFFFFFFFFFFFFFFFF AND DUP2 MSTORE PUSH1 0x20 ADD PUSH1 0x3 DUP3 ADD DUP1 SLOAD PUSH2 0xF60 SWAP1 PUSH2 0x201F JUMP JUMPDEST DUP1 PUSH1 0x1F ADD PUSH1 0x20 DUP1 SWAP2 DIV MUL PUSH1 0x20 ADD PUSH1 0x40 MLOAD SWAP1 DUP2 ADD PUSH1 0x40 MSTORE DUP1 SWAP3 SWAP2 SWAP1 DUP2 DUP2 MSTORE PUSH1 0x20 ADD DUP3 DUP1 SLOAD PUSH2 0xF8C SWAP1 PUSH2 0x201F JUMP JUMPDEST DUP1 ISZERO PUSH2 0xFD7 JUMPI DUP1 PUSH1 0x1F LT PUSH2 0xFAE JUMPI PUSH2 0x100 DUP1 DUP4 SLOAD DIV MUL DUP4 MSTORE SWAP2 PUSH1 0x20 ADD SWAP2 PUSH2 0xFD7 JUMP JUMPDEST DUP3 ADD SWAP2 SWAP1 PUSH0 MSTORE PUSH1 0x20 PUSH0 KECCAK256 SWAP1 JUMPDEST DUP2 SLOAD DUP2 MSTORE SWAP1 PUSH1 0x1 ADD SWAP1 PUSH1 0x20 ADD DUP1 DUP4 GT PUSH2 0xFBA JUMPI DUP3 SWAP1 SUB PUSH1 0x1F AND DUP3 ADD SWAP2 JUMPDEST POP POP POP POP POP DUP2 MSTORE PUSH1 0x20 ADD PUSH1 0x4 DUP3 ADD SLOAD DUP2 MSTORE POP POP DUP2 MSTORE PUSH1 0x20 ADD SWAP1 PUSH1 0x1 ADD SWAP1 PUSH2 0xEC7 JUMP JUMPDEST POP POP POP POP SWAP1 POP SWAP1 JUMP JUMPDEST PUSH1 0x2 PUSH1 0x1 SLOAD SUB PUSH2 0x1047 JUMPI PUSH1 0x40 MLOAD PUSH32 0x8C379A000000000000000000000000000000000000000000000000000000000 DUP2 MSTORE PUSH1 0x4 ADD PUSH2 0x103E SWAP1 PUSH2 0x20C6 JUMP JUMPDEST PUSH1 0x40 MLOAD DUP1 SWAP2 SUB SWAP1 REVERT JUMPDEST PUSH1 0x2 PUSH1 0x1 DUP2 SWAP1 SSTORE POP PUSH0 DUP2 GT PUSH2 0x1091 JUMPI PUSH1 0x40 MLOAD PUSH32 0x8C379A000000000000000000000000000000000000000000000000000000000 DUP2 MSTORE PUSH1 0x4 ADD PUSH2 0x1088 SWAP1 PUSH2 0x24A3 JUMP JUMPDEST PUSH1 0x40 MLOAD DUP1 SWAP2 SUB SWAP1 REVERT JUMPDEST PUSH0 PUSH1 0x4 DUP4 DUP2 SLOAD DUP2 LT PUSH2 0x10A6 JUMPI PUSH2 0x10A5 PUSH2 0x204F JUMP JUMPDEST JUMPDEST SWAP1 PUSH0 MSTORE PUSH1 0x20 PUSH0 KECCAK256 SWAP1 PUSH1 0x5 MUL ADD SWAP1 POP PUSH0 PUSH1 0x6 PUSH0 DUP6 DUP2 MSTORE PUSH1 0x20 ADD SWAP1 DUP2 MSTORE PUSH1 0x20 ADD PUSH0 KECCAK256 PUSH0 CALLER PUSH20 0xFFFFFFFFFFFFFFFFFFFFFFFFFFFFFFFFFFFFFFFF AND PUSH20 0xFFFFFFFFFFFFFFFFFFFFFFFFFFFFFFFFFFFFFFFF AND DUP2 MSTORE PUSH1 0x20 ADD SWAP1 DUP2 MSTORE PUSH1 0x20 ADD PUSH0 KECCAK256 SWAP1 POP PUSH0 DUP2 PUSH0 ADD SLOAD GT ISZERO PUSH2 0x11FD JUMPI PUSH0 PUSH2 0x1119 DUP3 DUP7 PUSH2 0x14C6 JUMP JUMPDEST SWAP1 POP DUP3 PUSH1 0x1 ADD PUSH0 SWAP1 SLOAD SWAP1 PUSH2 0x100 EXP SWAP1 DIV PUSH20 0xFFFFFFFFFFFFFFFFFFFFFFFFFFFFFFFFFFFFFFFF AND PUSH20 0xFFFFFFFFFFFFFFFFFFFFFFFFFFFFFFFFFFFFFFFF AND PUSH4 0xA9059CBB CALLER DUP4 PUSH1 0x40 MLOAD DUP4 PUSH4 0xFFFFFFFF AND PUSH1 0xE0 SHL DUP2 MSTORE PUSH1 0x4 ADD PUSH2 0x1179 SWAP3 SWAP2 SWAP1 PUSH2 0x21B4 JUMP JUMPDEST PUSH1 0x20 PUSH1 0x40 MLOAD DUP1 DUP4 SUB DUP2 PUSH0 DUP8 GAS CALL ISZERO DUP1 ISZERO PUSH2 0x1195 JUMPI RETURNDATASIZE PUSH0 DUP1 RETURNDATACOPY RETURNDATASIZE PUSH0 REVERT JUMPDEST POP POP POP POP PUSH1 0x40 MLOAD RETURNDATASIZE PUSH1 0x1F NOT PUSH1 0x1F DUP3 ADD AND DUP3 ADD DUP1 PUSH1 0x40 MSTORE POP DUP2 ADD SWAP1 PUSH2 0x11B9 SWAP2 SWAP1 PUSH2 0x2210 JUMP JUMPDEST POP PUSH2 0x11FB DUP6 DUP3 CALLER PUSH1 0x40 MLOAD DUP1 PUSH1 0x40 ADD PUSH1 0x40 MSTORE DUP1 PUSH1 0x5 DUP2 MSTORE PUSH1 0x20 ADD PUSH32 0x436C61696D000000000000000000000000000000000000000000000000000000 DUP2 MSTORE POP PUSH2 0x155E JUMP JUMPDEST POP JUMPDEST DUP2 PUSH0 ADD PUSH0 SWAP1 SLOAD SWAP1 PUSH2 0x100 EXP SWAP1 DIV PUSH20 0xFFFFFFFFFFFFFFFFFFFFFFFFFFFFFFFFFFFFFFFF AND PUSH20 0xFFFFFFFFFFFFFFFFFFFFFFFFFFFFFFFFFFFFFFFF AND PUSH4 0x23B872DD CALLER ADDRESS DUP7 PUSH1 0x40 MLOAD DUP5 PUSH4 0xFFFFFFFF AND PUSH1 0xE0 SHL DUP2 MSTORE PUSH1 0x4 ADD PUSH2 0x125C SWAP4 SWAP3 SWAP2 SWAP1 PUSH2 0x24C1 JUMP JUMPDEST PUSH1 0x20 PUSH1 0x40 MLOAD DUP1 DUP4 SUB DUP2 PUSH0 DUP8 GAS CALL ISZERO DUP1 ISZERO PUSH2 0x1278 JUMPI RETURNDATASIZE PUSH0 DUP1 RETURNDATACOPY RETURNDATASIZE PUSH0 REVERT JUMPDEST POP POP POP POP PUSH1 0x40 MLOAD RETURNDATASIZE PUSH1 0x1F NOT PUSH1 0x1F DUP3 ADD AND DUP3 ADD DUP1 PUSH1 0x40 MSTORE POP DUP2 ADD SWAP1 PUSH2 0x129C SWAP2 SWAP1 PUSH2 0x2210 JUMP JUMPDEST POP DUP3 DUP3 PUSH1 0x2 ADD PUSH0 DUP3 DUP3 SLOAD PUSH2 0x12B0 SWAP2 SWAP1 PUSH2 0x24F6 JUMP JUMPDEST SWAP3 POP POP DUP2 SWAP1 SSTORE POP DUP3 DUP2 PUSH0 ADD PUSH0 DUP3 DUP3 SLOAD PUSH2 0x12C9 SWAP2 SWAP1 PUSH2 0x24F6 JUMP JUMPDEST SWAP3 POP POP DUP2 SWAP1 SSTORE POP TIMESTAMP DUP2 PUSH1 0x1 ADD DUP2 SWAP1 SSTORE POP PUSH1 0x3C DUP3 PUSH1 0x4 ADD SLOAD PUSH2 0x12EA SWAP2 SWAP1 PUSH2 0x2529 JUMP JUMPDEST TIMESTAMP PUSH2 0x12F5 SWAP2 SWAP1 PUSH2 0x24F6 JUMP JUMPDEST DUP2 PUSH1 0x2 ADD DUP2 SWAP1 SSTORE POP DUP3 PUSH1 0x5 PUSH0 DUP5 PUSH0 ADD PUSH0 SWAP1 SLOAD SWAP1 PUSH2 0x100 EXP SWAP1 DIV PUSH20 0xFFFFFFFFFFFFFFFFFFFFFFFFFFFFFFFFFFFFFFFF AND PUSH20 0xFFFFFFFFFFFFFFFFFFFFFFFFFFFFFFFFFFFFFFFF AND PUSH20 0xFFFFFFFFFFFFFFFFFFFFFFFFFFFFFFFFFFFFFFFF AND DUP2 MSTORE PUSH1 0x20 ADD SWAP1 DUP2 MSTORE PUSH1 0x20 ADD PUSH0 KECCAK256 PUSH0 DUP3 DUP3 SLOAD PUSH2 0x136B SWAP2 SWAP1 PUSH2 0x24F6 JUMP JUMPDEST SWAP3 POP POP DUP2 SWAP1 SSTORE POP PUSH2 0x13B3 DUP5 DUP5 CALLER PUSH1 0x40 MLOAD DUP1 PUSH1 0x40 ADD PUSH1 0x40 MSTORE DUP1 PUSH1 0x7 DUP2 MSTORE PUSH1 0x20 ADD PUSH32 0x4465706F73697400000000000000000000000000000000000000000000000000 DUP2 MSTORE POP PUSH2 0x155E JUMP JUMPDEST POP POP PUSH1 0x1 DUP1 DUP2 SWAP1 SSTORE POP POP POP JUMP JUMPDEST PUSH2 0x13C8 PUSH2 0x1448 JUMP JUMPDEST PUSH0 PUSH20 0xFFFFFFFFFFFFFFFFFFFFFFFFFFFFFFFFFFFFFFFF AND DUP2 PUSH20 0xFFFFFFFFFFFFFFFFFFFFFFFFFFFFFFFFFFFFFFFF AND SUB PUSH2 0x1436 JUMPI PUSH1 0x40 MLOAD PUSH32 0x8C379A000000000000000000000000000000000000000000000000000000000 DUP2 MSTORE PUSH1 0x4 ADD PUSH2 0x142D SWAP1 PUSH2 0x25DA JUMP JUMPDEST PUSH1 0x40 MLOAD DUP1 SWAP2 SUB SWAP1 REVERT JUMPDEST PUSH2 0x143F DUP2 PUSH2 0x16C9 JUMP JUMPDEST POP JUMP JUMPDEST PUSH1 0x3 SLOAD DUP2 JUMP JUMPDEST PUSH2 0x1450 PUSH2 0x178A JUMP JUMPDEST PUSH20 0xFFFFFFFFFFFFFFFFFFFFFFFFFFFFFFFFFFFFFFFF AND PUSH2 0x146E PUSH2 0xA3F JUMP JUMPDEST PUSH20 0xFFFFFFFFFFFFFFFFFFFFFFFFFFFFFFFFFFFFFFFF AND EQ PUSH2 0x14C4 JUMPI PUSH1 0x40 MLOAD PUSH32 0x8C379A000000000000000000000000000000000000000000000000000000000 DUP2 MSTORE PUSH1 0x4 ADD PUSH2 0x14BB SWAP1 PUSH2 0x2642 JUMP JUMPDEST PUSH1 0x40 MLOAD DUP1 SWAP2 SUB SWAP1 REVERT JUMPDEST JUMP JUMPDEST PUSH0 DUP1 PUSH1 0x4 DUP4 DUP2 SLOAD DUP2 LT PUSH2 0x14DC JUMPI PUSH2 0x14DB PUSH2 0x204F JUMP JUMPDEST JUMPDEST SWAP1 PUSH0 MSTORE PUSH1 0x20 PUSH0 KECCAK256 SWAP1 PUSH1 0x5 MUL ADD SWAP1 POP PUSH0 PUSH1 0x3C DUP6 PUSH1 0x1 ADD SLOAD TIMESTAMP PUSH2 0x14FD SWAP2 SWAP1 PUSH2 0x2268 JUMP JUMPDEST PUSH2 0x1507 SWAP2 SWAP1 PUSH2 0x268D JUMP JUMPDEST SWAP1 POP DUP2 PUSH1 0x4 ADD SLOAD DUP2 GT ISZERO PUSH2 0x151D JUMPI DUP2 PUSH1 0x4 ADD SLOAD SWAP1 POP JUMPDEST DUP2 PUSH1 0x3 ADD SLOAD PUSH1 0x64 PUSH2 0x16D DUP4 DUP9 PUSH0 ADD SLOAD PUSH2 0x1536 SWAP2 SWAP1 PUSH2 0x2529 JUMP JUMPDEST PUSH2 0x1540 SWAP2 SWAP1 PUSH2 0x268D JUMP JUMPDEST PUSH2 0x154A SWAP2 SWAP1 PUSH2 0x268D JUMP JUMPDEST PUSH2 0x1554 SWAP2 SWAP1 PUSH2 0x2529 JUMP JUMPDEST SWAP3 POP POP POP SWAP3 SWAP2 POP POP JUMP JUMPDEST PUSH1 0x7 PUSH1 0x40 MLOAD DUP1 PUSH1 0xA0 ADD PUSH1 0x40 MSTORE DUP1 DUP7 DUP2 MSTORE PUSH1 0x20 ADD DUP6 DUP2 MSTORE PUSH1 0x20 ADD DUP5 PUSH20 0xFFFFFFFFFFFFFFFFFFFFFFFFFFFFFFFFFFFFFFFF AND DUP2 MSTORE PUSH1 0x20 ADD DUP4 DUP2 MSTORE PUSH1 0x20 ADD TIMESTAMP DUP2 MSTORE POP SWAP1 DUP1 PUSH1 0x1 DUP2 SLOAD ADD DUP1 DUP3 SSTORE DUP1 SWAP2 POP POP PUSH1 0x1 SWAP1 SUB SWAP1 PUSH0 MSTORE PUSH1 0x20 PUSH0 KECCAK256 SWAP1 PUSH1 0x5 MUL ADD PUSH0 SWAP1 SWAP2 SWAP1 SWAP2 SWAP1 SWAP2 POP PUSH0 DUP3 ADD MLOAD DUP2 PUSH0 ADD SSTORE PUSH1 0x20 DUP3 ADD MLOAD DUP2 PUSH1 0x1 ADD SSTORE PUSH1 0x40 DUP3 ADD MLOAD DUP2 PUSH1 0x2 ADD PUSH0 PUSH2 0x100 EXP DUP2 SLOAD DUP2 PUSH20 0xFFFFFFFFFFFFFFFFFFFFFFFFFFFFFFFFFFFFFFFF MUL NOT AND SWAP1 DUP4 PUSH20 0xFFFFFFFFFFFFFFFFFFFFFFFFFFFFFFFFFFFFFFFF AND MUL OR SWAP1 SSTORE POP PUSH1 0x60 DUP3 ADD MLOAD DUP2 PUSH1 0x3 ADD SWAP1 DUP2 PUSH2 0x1630 SWAP2 SWAP1 PUSH2 0x287E JUMP JUMPDEST POP PUSH1 0x80 DUP3 ADD MLOAD DUP2 PUSH1 0x4 ADD SSTORE POP POP POP POP POP POP JUMP JUMPDEST PUSH2 0x16C4 DUP4 PUSH4 0xA9059CBB PUSH1 0xE0 SHL DUP5 DUP5 PUSH1 0x40 MLOAD PUSH1 0x24 ADD PUSH2 0x1662 SWAP3 SWAP2 SWAP1 PUSH2 0x21B4 JUMP JUMPDEST PUSH1 0x40 MLOAD PUSH1 0x20 DUP2 DUP4 SUB SUB DUP2 MSTORE SWAP1 PUSH1 0x40 MSTORE SWAP1 PUSH28 0xFFFFFFFFFFFFFFFFFFFFFFFFFFFFFFFFFFFFFFFFFFFFFFFFFFFFFFFF NOT AND PUSH1 0x20 DUP3 ADD DUP1 MLOAD PUSH28 0xFFFFFFFFFFFFFFFFFFFFFFFFFFFFFFFFFFFFFFFFFFFFFFFFFFFFFFFF DUP4 DUP2 DUP4 AND OR DUP4 MSTORE POP POP POP POP PUSH2 0x1791 JUMP JUMPDEST POP POP POP JUMP JUMPDEST PUSH0 DUP1 PUSH0 SWAP1 SLOAD SWAP1 PUSH2 0x100 EXP SWAP1 DIV PUSH20 0xFFFFFFFFFFFFFFFFFFFFFFFFFFFFFFFFFFFFFFFF AND SWAP1 POP DUP2 PUSH0 DUP1 PUSH2 0x100 EXP DUP2 SLOAD DUP2 PUSH20 0xFFFFFFFFFFFFFFFFFFFFFFFFFFFFFFFFFFFFFFFF MUL NOT AND SWAP1 DUP4 PUSH20 0xFFFFFFFFFFFFFFFFFFFFFFFFFFFFFFFFFFFFFFFF AND MUL OR SWAP1 SSTORE POP DUP2 PUSH20 0xFFFFFFFFFFFFFFFFFFFFFFFFFFFFFFFFFFFFFFFF AND DUP2 PUSH20 0xFFFFFFFFFFFFFFFFFFFFFFFFFFFFFFFFFFFFFFFF AND PUSH32 0x8BE0079C531659141344CD1FD0A4F28419497F9722A3DAAFE3B4186F6B6457E0 PUSH1 0x40 MLOAD PUSH1 0x40 MLOAD DUP1 SWAP2 SUB SWAP1 LOG3 POP POP JUMP JUMPDEST PUSH0 CALLER SWAP1 POP SWAP1 JUMP JUMPDEST PUSH0 PUSH2 0x17F2 DUP3 PUSH1 0x40 MLOAD DUP1 PUSH1 0x40 ADD PUSH1 0x40 MSTORE DUP1 PUSH1 0x20 DUP2 MSTORE PUSH1 0x20 ADD PUSH32 0x5361666545524332303A206C6F772D6C6576656C2063616C6C206661696C6564 DUP2 MSTORE POP DUP6 PUSH20 0xFFFFFFFFFFFFFFFFFFFFFFFFFFFFFFFFFFFFFFFF AND PUSH2 0x1856 SWAP1 SWAP3 SWAP2 SWAP1 PUSH4 0xFFFFFFFF AND JUMP JUMPDEST SWAP1 POP PUSH0 DUP2 MLOAD GT ISZERO PUSH2 0x1851 JUMPI DUP1 DUP1 PUSH1 0x20 ADD SWAP1 MLOAD DUP2 ADD SWAP1 PUSH2 0x1811 SWAP2 SWAP1 PUSH2 0x2210 JUMP JUMPDEST PUSH2 0x1850 JUMPI PUSH1 0x40 MLOAD PUSH32 0x8C379A000000000000000000000000000000000000000000000000000000000 DUP2 MSTORE PUSH1 0x4 ADD PUSH2 0x1847 SWAP1 PUSH2 0x29BD JUMP JUMPDEST PUSH1 0x40 MLOAD DUP1 SWAP2 SUB SWAP1 REVERT JUMPDEST JUMPDEST POP POP POP JUMP JUMPDEST PUSH1 0x60 PUSH2 0x1864 DUP5 DUP5 PUSH0 DUP6 PUSH2 0x186D JUMP JUMPDEST SWAP1 POP SWAP4 SWAP3 POP POP POP JUMP JUMPDEST PUSH1 0x60 DUP3 SELFBALANCE LT ISZERO PUSH2 0x18B2 JUMPI PUSH1 0x40 MLOAD PUSH32 0x8C379A000000000000000000000000000000000000000000000000000000000 DUP2 MSTORE PUSH1 0x4 ADD PUSH2 0x18A9 SWAP1 PUSH2 0x2A4B JUMP JUMPDEST PUSH1 0x40 MLOAD DUP1 SWAP2 SUB SWAP1 REVERT JUMPDEST PUSH2 0x18BB DUP6 PUSH2 0x197D JUMP JUMPDEST PUSH2 0x18FA JUMPI PUSH1 0x40 MLOAD PUSH32 0x8C379A000000000000000000000000000000000000000000000000000000000 DUP2 MSTORE PUSH1 0x4 ADD PUSH2 0x18F1 SWAP1 PUSH2 0x2AB3 JUMP JUMPDEST PUSH1 0x40 MLOAD DUP1 SWAP2 SUB SWAP1 REVERT JUMPDEST PUSH0 DUP1 DUP7 PUSH20 0xFFFFFFFFFFFFFFFFFFFFFFFFFFFFFFFFFFFFFFFF AND DUP6 DUP8 PUSH1 0x40 MLOAD PUSH2 0x1922 SWAP2 SWAP1 PUSH2 0x2B15 JUMP JUMPDEST PUSH0 PUSH1 0x40 MLOAD DUP1 DUP4 SUB DUP2 DUP6 DUP8 GAS CALL SWAP3 POP POP POP RETURNDATASIZE DUP1 PUSH0 DUP2 EQ PUSH2 0x195C JUMPI PUSH1 0x40 MLOAD SWAP2 POP PUSH1 0x1F NOT PUSH1 0x3F RETURNDATASIZE ADD AND DUP3 ADD PUSH1 0x40 MSTORE RETURNDATASIZE DUP3 MSTORE RETURNDATASIZE PUSH0 PUSH1 0x20 DUP5 ADD RETURNDATACOPY PUSH2 0x1961 JUMP JUMPDEST PUSH1 0x60 SWAP2 POP JUMPDEST POP SWAP2 POP SWAP2 POP PUSH2 0x1971 DUP3 DUP3 DUP7 PUSH2 0x199F JUMP JUMPDEST SWAP3 POP POP POP SWAP5 SWAP4 POP POP POP POP JUMP JUMPDEST PUSH0 DUP1 DUP3 PUSH20 0xFFFFFFFFFFFFFFFFFFFFFFFFFFFFFFFFFFFFFFFF AND EXTCODESIZE GT SWAP1 POP SWAP2 SWAP1 POP JUMP JUMPDEST PUSH1 0x60 DUP4 ISZERO PUSH2 0x19AF JUMPI DUP3 SWAP1 POP PUSH2 0x19FE JUMP JUMPDEST PUSH0 DUP4 MLOAD GT ISZERO PUSH2 0x19C1 JUMPI DUP3 MLOAD DUP1 DUP5 PUSH1 0x20 ADD REVERT JUMPDEST DUP2 PUSH1 0x40 MLOAD PUSH32 0x8C379A000000000000000000000000000000000000000000000000000000000 DUP2 MSTORE PUSH1 0x4 ADD PUSH2 0x19F5 SWAP2 SWAP1 PUSH2 0x2B2B JUMP JUMPDEST PUSH1 0x40 MLOAD DUP1 SWAP2 SUB SWAP1 REVERT JUMPDEST SWAP4 SWAP3 POP POP POP JUMP JUMPDEST PUSH0 DUP1 REVERT JUMPDEST PUSH0 DUP2 SWAP1 POP SWAP2 SWAP1 POP JUMP JUMPDEST PUSH2 0x1A1B DUP2 PUSH2 0x1A09 JUMP JUMPDEST DUP2 EQ PUSH2 0x1A25 JUMPI PUSH0 DUP1 REVERT JUMPDEST POP JUMP JUMPDEST PUSH0 DUP2 CALLDATALOAD SWAP1 POP PUSH2 0x1A36 DUP2 PUSH2 0x1A12 JUMP JUMPDEST SWAP3 SWAP2 POP POP JUMP JUMPDEST PUSH0 PUSH1 0x20 DUP3 DUP5 SUB SLT ISZERO PUSH2 0x1A51 JUMPI PUSH2 0x1A50 PUSH2 0x1A05 JUMP JUMPDEST JUMPDEST PUSH0 PUSH2 0x1A5E DUP5 DUP3 DUP6 ADD PUSH2 0x1A28 JUMP JUMPDEST SWAP2 POP POP SWAP3 SWAP2 POP POP JUMP JUMPDEST PUSH0 PUSH20 0xFFFFFFFFFFFFFFFFFFFFFFFFFFFFFFFFFFFFFFFF DUP3 AND SWAP1 POP SWAP2 SWAP1 POP JUMP JUMPDEST PUSH0 DUP2 SWAP1 POP SWAP2 SWAP1 POP JUMP JUMPDEST PUSH0 PUSH2 0x1AA9 PUSH2 0x1AA4 PUSH2 0x1A9F DUP5 PUSH2 0x1A67 JUMP JUMPDEST PUSH2 0x1A86 JUMP JUMPDEST PUSH2 0x1A67 JUMP JUMPDEST SWAP1 POP SWAP2 SWAP1 POP JUMP JUMPDEST PUSH0 PUSH2 0x1ABA DUP3 PUSH2 0x1A8F JUMP JUMPDEST SWAP1 POP SWAP2 SWAP1 POP JUMP JUMPDEST PUSH0 PUSH2 0x1ACB DUP3 PUSH2 0x1AB0 JUMP JUMPDEST SWAP1 POP SWAP2 SWAP1 POP JUMP JUMPDEST PUSH2 0x1ADB DUP2 PUSH2 0x1AC1 JUMP JUMPDEST DUP3 MSTORE POP POP JUMP JUMPDEST PUSH2 0x1AEA DUP2 PUSH2 0x1A09 JUMP JUMPDEST DUP3 MSTORE POP POP JUMP JUMPDEST PUSH0 PUSH1 0xA0 DUP3 ADD SWAP1 POP PUSH2 0x1B03 PUSH0 DUP4 ADD DUP9 PUSH2 0x1AD2 JUMP JUMPDEST PUSH2 0x1B10 PUSH1 0x20 DUP4 ADD DUP8 PUSH2 0x1AD2 JUMP JUMPDEST PUSH2 0x1B1D PUSH1 0x40 DUP4 ADD DUP7 PUSH2 0x1AE1 JUMP JUMPDEST PUSH2 0x1B2A PUSH1 0x60 DUP4 ADD DUP6 PUSH2 0x1AE1 JUMP JUMPDEST PUSH2 0x1B37 PUSH1 0x80 DUP4 ADD DUP5 PUSH2 0x1AE1 JUMP JUMPDEST SWAP7 SWAP6 POP POP POP POP POP POP JUMP JUMPDEST PUSH0 PUSH2 0x1B4B DUP3 PUSH2 0x1A67 JUMP JUMPDEST SWAP1 POP SWAP2 SWAP1 POP JUMP JUMPDEST PUSH2 0x1B5B DUP2 PUSH2 0x1B41 JUMP JUMPDEST DUP3 MSTORE POP POP JUMP JUMPDEST PUSH0 DUP2 MLOAD SWAP1 POP SWAP2 SWAP1 POP JUMP JUMPDEST PUSH0 DUP3 DUP3 MSTORE PUSH1 0x20 DUP3 ADD SWAP1 POP SWAP3 SWAP2 POP POP JUMP JUMPDEST DUP3 DUP2 DUP4 MCOPY PUSH0 DUP4 DUP4 ADD MSTORE POP POP POP JUMP JUMPDEST PUSH0 PUSH1 0x1F NOT PUSH1 0x1F DUP4 ADD AND SWAP1 POP SWAP2 SWAP1 POP JUMP JUMPDEST PUSH0 PUSH2 0x1BA3 DUP3 PUSH2 0x1B61 JUMP JUMPDEST PUSH2 0x1BAD DUP2 DUP6 PUSH2 0x1B6B JUMP JUMPDEST SWAP4 POP PUSH2 0x1BBD DUP2 DUP6 PUSH1 0x20 DUP7 ADD PUSH2 0x1B7B JUMP JUMPDEST PUSH2 0x1BC6 DUP2 PUSH2 0x1B89 JUMP JUMPDEST DUP5 ADD SWAP2 POP POP SWAP3 SWAP2 POP POP JUMP JUMPDEST PUSH0 PUSH1 0xA0 DUP3 ADD SWAP1 POP PUSH2 0x1BE4 PUSH0 DUP4 ADD DUP9 PUSH2 0x1AE1 JUMP JUMPDEST PUSH2 0x1BF1 PUSH1 0x20 DUP4 ADD DUP8 PUSH2 0x1AE1 JUMP JUMPDEST PUSH2 0x1BFE PUSH1 0x40 DUP4 ADD DUP7 PUSH2 0x1B52 JUMP JUMPDEST DUP2 DUP2 SUB PUSH1 0x60 DUP4 ADD MSTORE PUSH2 0x1C10 DUP2 DUP6 PUSH2 0x1B99 JUMP JUMPDEST SWAP1 POP PUSH2 0x1C1F PUSH1 0x80 DUP4 ADD DUP5 PUSH2 0x1AE1 JUMP JUMPDEST SWAP7 SWAP6 POP POP POP POP POP POP JUMP JUMPDEST PUSH0 DUP1 PUSH1 0x40 DUP4 DUP6 SUB SLT ISZERO PUSH2 0x1C3F JUMPI PUSH2 0x1C3E PUSH2 0x1A05 JUMP JUMPDEST JUMPDEST PUSH0 PUSH2 0x1C4C DUP6 DUP3 DUP7 ADD PUSH2 0x1A28 JUMP JUMPDEST SWAP3 POP POP PUSH1 0x20 PUSH2 0x1C5D DUP6 DUP3 DUP7 ADD PUSH2 0x1A28 JUMP JUMPDEST SWAP2 POP POP SWAP3 POP SWAP3 SWAP1 POP JUMP JUMPDEST PUSH2 0x1C70 DUP2 PUSH2 0x1B41 JUMP JUMPDEST DUP2 EQ PUSH2 0x1C7A JUMPI PUSH0 DUP1 REVERT JUMPDEST POP JUMP JUMPDEST PUSH0 DUP2 CALLDATALOAD SWAP1 POP PUSH2 0x1C8B DUP2 PUSH2 0x1C67 JUMP JUMPDEST SWAP3 SWAP2 POP POP JUMP JUMPDEST PUSH0 DUP1 PUSH1 0x40 DUP4 DUP6 SUB SLT ISZERO PUSH2 0x1CA7 JUMPI PUSH2 0x1CA6 PUSH2 0x1A05 JUMP JUMPDEST JUMPDEST PUSH0 PUSH2 0x1CB4 DUP6 DUP3 DUP7 ADD PUSH2 0x1C7D JUMP JUMPDEST SWAP3 POP POP PUSH1 0x20 PUSH2 0x1CC5 DUP6 DUP3 DUP7 ADD PUSH2 0x1A28 JUMP JUMPDEST SWAP2 POP POP SWAP3 POP SWAP3 SWAP1 POP JUMP JUMPDEST PUSH0 PUSH1 0x20 DUP3 ADD SWAP1 POP PUSH2 0x1CE2 PUSH0 DUP4 ADD DUP5 PUSH2 0x1B52 JUMP JUMPDEST SWAP3 SWAP2 POP POP JUMP JUMPDEST PUSH0 DUP1 PUSH1 0x40 DUP4 DUP6 SUB SLT ISZERO PUSH2 0x1CFE JUMPI PUSH2 0x1CFD PUSH2 0x1A05 JUMP JUMPDEST JUMPDEST PUSH0 PUSH2 0x1D0B DUP6 DUP3 DUP7 ADD PUSH2 0x1A28 JUMP JUMPDEST SWAP3 POP POP PUSH1 0x20 PUSH2 0x1D1C DUP6 DUP3 DUP7 ADD PUSH2 0x1C7D JUMP JUMPDEST SWAP2 POP POP SWAP3 POP SWAP3 SWAP1 POP JUMP JUMPDEST PUSH0 PUSH1 0x60 DUP3 ADD SWAP1 POP PUSH2 0x1D39 PUSH0 DUP4 ADD DUP7 PUSH2 0x1AE1 JUMP JUMPDEST PUSH2 0x1D46 PUSH1 0x20 DUP4 ADD DUP6 PUSH2 0x1AE1 JUMP JUMPDEST PUSH2 0x1D53 PUSH1 0x40 DUP4 ADD DUP5 PUSH2 0x1AE1 JUMP JUMPDEST SWAP5 SWAP4 POP POP POP POP JUMP JUMPDEST PUSH0 PUSH1 0x20 DUP3 ADD SWAP1 POP PUSH2 0x1D6E PUSH0 DUP4 ADD DUP5 PUSH2 0x1AE1 JUMP JUMPDEST SWAP3 SWAP2 POP POP JUMP JUMPDEST PUSH0 PUSH2 0x1D7E DUP3 PUSH2 0x1B41 JUMP JUMPDEST SWAP1 POP SWAP2 SWAP1 POP JUMP JUMPDEST PUSH2 0x1D8E DUP2 PUSH2 0x1D74 JUMP JUMPDEST DUP2 EQ PUSH2 0x1D98 JUMPI PUSH0 DUP1 REVERT JUMPDEST POP JUMP JUMPDEST PUSH0 DUP2 CALLDATALOAD SWAP1 POP PUSH2 0x1DA9 DUP2 PUSH2 0x1D85 JUMP JUMPDEST SWAP3 SWAP2 POP POP JUMP JUMPDEST PUSH0 DUP1 PUSH0 DUP1 PUSH1 0x80 DUP6 DUP8 SUB SLT ISZERO PUSH2 0x1DC7 JUMPI PUSH2 0x1DC6 PUSH2 0x1A05 JUMP JUMPDEST JUMPDEST PUSH0 PUSH2 0x1DD4 DUP8 DUP3 DUP9 ADD PUSH2 0x1D9B JUMP JUMPDEST SWAP5 POP POP PUSH1 0x20 PUSH2 0x1DE5 DUP8 DUP3 DUP9 ADD PUSH2 0x1D9B JUMP JUMPDEST SWAP4 POP POP PUSH1 0x40 PUSH2 0x1DF6 DUP8 DUP3 DUP9 ADD PUSH2 0x1A28 JUMP JUMPDEST SWAP3 POP POP PUSH1 0x60 PUSH2 0x1E07 DUP8 DUP3 DUP9 ADD PUSH2 0x1A28 JUMP JUMPDEST SWAP2 POP POP SWAP3 SWAP6 SWAP2 SWAP5 POP SWAP3 POP JUMP JUMPDEST PUSH0 PUSH1 0x20 DUP3 DUP5 SUB SLT ISZERO PUSH2 0x1E28 JUMPI PUSH2 0x1E27 PUSH2 0x1A05 JUMP JUMPDEST JUMPDEST PUSH0 PUSH2 0x1E35 DUP5 DUP3 DUP6 ADD PUSH2 0x1C7D JUMP JUMPDEST SWAP2 POP POP SWAP3 SWAP2 POP POP JUMP JUMPDEST PUSH0 DUP2 MLOAD SWAP1 POP SWAP2 SWAP1 POP JUMP JUMPDEST PUSH0 DUP3 DUP3 MSTORE PUSH1 0x20 DUP3 ADD SWAP1 POP SWAP3 SWAP2 POP POP JUMP JUMPDEST PUSH0 DUP2 SWAP1 POP PUSH1 0x20 DUP3 ADD SWAP1 POP SWAP2 SWAP1 POP JUMP JUMPDEST PUSH2 0x1E70 DUP2 PUSH2 0x1A09 JUMP JUMPDEST DUP3 MSTORE POP POP JUMP JUMPDEST PUSH2 0x1E7F DUP2 PUSH2 0x1B41 JUMP JUMPDEST DUP3 MSTORE POP POP JUMP JUMPDEST PUSH0 DUP3 DUP3 MSTORE PUSH1 0x20 DUP3 ADD SWAP1 POP SWAP3 SWAP2 POP POP JUMP JUMPDEST PUSH0 PUSH2 0x1E9F DUP3 PUSH2 0x1B61 JUMP JUMPDEST PUSH2 0x1EA9 DUP2 DUP6 PUSH2 0x1E85 JUMP JUMPDEST SWAP4 POP PUSH2 0x1EB9 DUP2 DUP6 PUSH1 0x20 DUP7 ADD PUSH2 0x1B7B JUMP JUMPDEST PUSH2 0x1EC2 DUP2 PUSH2 0x1B89 JUMP JUMPDEST DUP5 ADD SWAP2 POP POP SWAP3 SWAP2 POP POP JUMP JUMPDEST PUSH0 PUSH1 0xA0 DUP4 ADD PUSH0 DUP4 ADD MLOAD PUSH2 0x1EE2 PUSH0 DUP7 ADD DUP3 PUSH2 0x1E67 JUMP JUMPDEST POP PUSH1 0x20 DUP4 ADD MLOAD PUSH2 0x1EF5 PUSH1 0x20 DUP7 ADD DUP3 PUSH2 0x1E67 JUMP JUMPDEST POP PUSH1 0x40 DUP4 ADD MLOAD PUSH2 0x1F08 PUSH1 0x40 DUP7 ADD DUP3 PUSH2 0x1E76 JUMP JUMPDEST POP PUSH1 0x60 DUP4 ADD MLOAD DUP5 DUP3 SUB PUSH1 0x60 DUP7 ADD MSTORE PUSH2 0x1F20 DUP3 DUP3 PUSH2 0x1E95 JUMP JUMPDEST SWAP2 POP POP PUSH1 0x80 DUP4 ADD MLOAD PUSH2 0x1F35 PUSH1 0x80 DUP7 ADD DUP3 PUSH2 0x1E67 JUMP JUMPDEST POP DUP1 SWAP2 POP POP SWAP3 SWAP2 POP POP JUMP JUMPDEST PUSH0 PUSH2 0x1F4B DUP4 DUP4 PUSH2 0x1ECD JUMP JUMPDEST SWAP1 POP SWAP3 SWAP2 POP POP JUMP JUMPDEST PUSH0 PUSH1 0x20 DUP3 ADD SWAP1 POP SWAP2 SWAP1 POP JUMP JUMPDEST PUSH0 PUSH2 0x1F69 DUP3 PUSH2 0x1E3E JUMP JUMPDEST PUSH2 0x1F73 DUP2 DUP6 PUSH2 0x1E48 JUMP JUMPDEST SWAP4 POP DUP4 PUSH1 0x20 DUP3 MUL DUP6 ADD PUSH2 0x1F85 DUP6 PUSH2 0x1E58 JUMP JUMPDEST DUP1 PUSH0 JUMPDEST DUP6 DUP2 LT ISZERO PUSH2 0x1FC0 JUMPI DUP5 DUP5 SUB DUP10 MSTORE DUP2 MLOAD PUSH2 0x1FA1 DUP6 DUP3 PUSH2 0x1F40 JUMP JUMPDEST SWAP5 POP PUSH2 0x1FAC DUP4 PUSH2 0x1F53 JUMP JUMPDEST SWAP3 POP PUSH1 0x20 DUP11 ADD SWAP10 POP POP PUSH1 0x1 DUP2 ADD SWAP1 POP PUSH2 0x1F88 JUMP JUMPDEST POP DUP3 SWAP8 POP DUP8 SWAP6 POP POP POP POP POP POP SWAP3 SWAP2 POP POP JUMP JUMPDEST PUSH0 PUSH1 0x20 DUP3 ADD SWAP1 POP DUP2 DUP2 SUB PUSH0 DUP4 ADD MSTORE PUSH2 0x1FEA DUP2 DUP5 PUSH2 0x1F5F JUMP JUMPDEST SWAP1 POP SWAP3 SWAP2 POP POP JUMP JUMPDEST PUSH32 0x4E487B7100000000000000000000000000000000000000000000000000000000 PUSH0 MSTORE PUSH1 0x22 PUSH1 0x4 MSTORE PUSH1 0x24 PUSH0 REVERT JUMPDEST PUSH0 PUSH1 0x2 DUP3 DIV SWAP1 POP PUSH1 0x1 DUP3 AND DUP1 PUSH2 0x2036 JUMPI PUSH1 0x7F DUP3 AND SWAP2 POP JUMPDEST PUSH1 0x20 DUP3 LT DUP2 SUB PUSH2 0x2049 JUMPI PUSH2 0x2048 PUSH2 0x1FF2 JUMP JUMPDEST JUMPDEST POP SWAP2 SWAP1 POP JUMP JUMPDEST PUSH32 0x4E487B7100000000000000000000000000000000000000000000000000000000 PUSH0 MSTORE PUSH1 0x32 PUSH1 0x4 MSTORE PUSH1 0x24 PUSH0 REVERT JUMPDEST PUSH32 0x5265656E7472616E637947756172643A207265656E7472616E742063616C6C00 PUSH0 DUP3 ADD MSTORE POP JUMP JUMPDEST PUSH0 PUSH2 0x20B0 PUSH1 0x1F DUP4 PUSH2 0x1B6B JUMP JUMPDEST SWAP2 POP PUSH2 0x20BB DUP3 PUSH2 0x207C JUMP JUMPDEST PUSH1 0x20 DUP3 ADD SWAP1 POP SWAP2 SWAP1 POP JUMP JUMPDEST PUSH0 PUSH1 0x20 DUP3 ADD SWAP1 POP DUP2 DUP2 SUB PUSH0 DUP4 ADD MSTORE PUSH2 0x20DD DUP2 PUSH2 0x20A4 JUMP JUMPDEST SWAP1 POP SWAP2 SWAP1 POP JUMP JUMPDEST PUSH32 0x576974686472617720616D6F756E7420657863656564732062616C616E636500 PUSH0 DUP3 ADD MSTORE POP JUMP JUMPDEST PUSH0 PUSH2 0x2118 PUSH1 0x1F DUP4 PUSH2 0x1B6B JUMP JUMPDEST SWAP2 POP PUSH2 0x2123 DUP3 PUSH2 0x20E4 JUMP JUMPDEST PUSH1 0x20 DUP3 ADD SWAP1 POP SWAP2 SWAP1 POP JUMP JUMPDEST PUSH0 PUSH1 0x20 DUP3 ADD SWAP1 POP DUP2 DUP2 SUB PUSH0 DUP4 ADD MSTORE PUSH2 0x2145 DUP2 PUSH2 0x210C JUMP JUMPDEST SWAP1 POP SWAP2 SWAP1 POP JUMP JUMPDEST PUSH32 0x4C6F636B20697320616374697665000000000000000000000000000000000000 PUSH0 DUP3 ADD MSTORE POP JUMP JUMPDEST PUSH0 PUSH2 0x2180 PUSH1 0xE DUP4 PUSH2 0x1B6B JUMP JUMPDEST SWAP2 POP PUSH2 0x218B DUP3 PUSH2 0x214C JUMP JUMPDEST PUSH1 0x20 DUP3 ADD SWAP1 POP SWAP2 SWAP1 POP JUMP JUMPDEST PUSH0 PUSH1 0x20 DUP3 ADD SWAP1 POP DUP2 DUP2 SUB PUSH0 DUP4 ADD MSTORE PUSH2 0x21AD DUP2 PUSH2 0x2174 JUMP JUMPDEST SWAP1 POP SWAP2 SWAP1 POP JUMP JUMPDEST PUSH0 PUSH1 0x40 DUP3 ADD SWAP1 POP PUSH2 0x21C7 PUSH0 DUP4 ADD DUP6 PUSH2 0x1B52 JUMP JUMPDEST PUSH2 0x21D4 PUSH1 0x20 DUP4 ADD DUP5 PUSH2 0x1AE1 JUMP JUMPDEST SWAP4 SWAP3 POP POP POP JUMP JUMPDEST PUSH0 DUP2 ISZERO ISZERO SWAP1 POP SWAP2 SWAP1 POP JUMP JUMPDEST PUSH2 0x21EF DUP2 PUSH2 0x21DB JUMP JUMPDEST DUP2 EQ PUSH2 0x21F9 JUMPI PUSH0 DUP1 REVERT JUMPDEST POP JUMP JUMPDEST PUSH0 DUP2 MLOAD SWAP1 POP PUSH2 0x220A DUP2 PUSH2 0x21E6 JUMP JUMPDEST SWAP3 SWAP2 POP POP JUMP JUMPDEST PUSH0 PUSH1 0x20 DUP3 DUP5 SUB SLT ISZERO PUSH2 0x2225 JUMPI PUSH2 0x2224 PUSH2 0x1A05 JUMP JUMPDEST JUMPDEST PUSH0 PUSH2 0x2232 DUP5 DUP3 DUP6 ADD PUSH2 0x21FC JUMP JUMPDEST SWAP2 POP POP SWAP3 SWAP2 POP POP JUMP JUMPDEST PUSH32 0x4E487B7100000000000000000000000000000000000000000000000000000000 PUSH0 MSTORE PUSH1 0x11 PUSH1 0x4 MSTORE PUSH1 0x24 PUSH0 REVERT JUMPDEST PUSH0 PUSH2 0x2272 DUP3 PUSH2 0x1A09 JUMP JUMPDEST SWAP2 POP PUSH2 0x227D DUP4 PUSH2 0x1A09 JUMP JUMPDEST SWAP3 POP DUP3 DUP3 SUB SWAP1 POP DUP2 DUP2 GT ISZERO PUSH2 0x2295 JUMPI PUSH2 0x2294 PUSH2 0x223B JUMP JUMPDEST JUMPDEST SWAP3 SWAP2 POP POP JUMP JUMPDEST PUSH0 DUP2 MLOAD SWAP1 POP PUSH2 0x22A9 DUP2 PUSH2 0x1A12 JUMP JUMPDEST SWAP3 SWAP2 POP POP JUMP JUMPDEST PUSH0 PUSH1 0x20 DUP3 DUP5 SUB SLT ISZERO PUSH2 0x22C4 JUMPI PUSH2 0x22C3 PUSH2 0x1A05 JUMP JUMPDEST JUMPDEST PUSH0 PUSH2 0x22D1 DUP5 DUP3 DUP6 ADD PUSH2 0x229B JUMP JUMPDEST SWAP2 POP POP SWAP3 SWAP2 POP POP JUMP JUMPDEST PUSH32 0x416D6F756E7420657863656564732062616C616E636500000000000000000000 PUSH0 DUP3 ADD MSTORE POP JUMP JUMPDEST PUSH0 PUSH2 0x230E PUSH1 0x16 DUP4 PUSH2 0x1B6B JUMP JUMPDEST SWAP2 POP PUSH2 0x2319 DUP3 PUSH2 0x22DA JUMP JUMPDEST PUSH1 0x20 DUP3 ADD SWAP1 POP SWAP2 SWAP1 POP JUMP JUMPDEST PUSH0 PUSH1 0x20 DUP3 ADD SWAP1 POP DUP2 DUP2 SUB PUSH0 DUP4 ADD MSTORE PUSH2 0x233B DUP2 PUSH2 0x2302 JUMP JUMPDEST SWAP1 POP SWAP2 SWAP1 POP JUMP JUMPDEST PUSH32 0x43616E74207769746864726177206465706F736974656420746F6B656E730000 PUSH0 DUP3 ADD MSTORE POP JUMP JUMPDEST PUSH0 PUSH2 0x2376 PUSH1 0x1E DUP4 PUSH2 0x1B6B JUMP JUMPDEST SWAP2 POP PUSH2 0x2381 DUP3 PUSH2 0x2342 JUMP JUMPDEST PUSH1 0x20 DUP3 ADD SWAP1 POP SWAP2 SWAP1 POP JUMP JUMPDEST PUSH0 PUSH1 0x20 DUP3 ADD SWAP1 POP DUP2 DUP2 SUB PUSH0 DUP4 ADD MSTORE PUSH2 0x23A3 DUP2 PUSH2 0x236A JUMP JUMPDEST SWAP1 POP SWAP2 SWAP1 POP JUMP JUMPDEST PUSH32 0x4E6F207265776172647320746F20636C61696D00000000000000000000000000 PUSH0 DUP3 ADD MSTORE POP JUMP JUMPDEST PUSH0 PUSH2 0x23DE PUSH1 0x13 DUP4 PUSH2 0x1B6B JUMP JUMPDEST SWAP2 POP PUSH2 0x23E9 DUP3 PUSH2 0x23AA JUMP JUMPDEST PUSH1 0x20 DUP3 ADD SWAP1 POP SWAP2 SWAP1 POP JUMP JUMPDEST PUSH0 PUSH1 0x20 DUP3 ADD SWAP1 POP DUP2 DUP2 SUB PUSH0 DUP4 ADD MSTORE PUSH2 0x240B DUP2 PUSH2 0x23D2 JUMP JUMPDEST SWAP1 POP SWAP2 SWAP1 POP JUMP JUMPDEST PUSH0 PUSH2 0x241C DUP3 PUSH2 0x1A09 JUMP JUMPDEST SWAP2 POP PUSH32 0xFFFFFFFFFFFFFFFFFFFFFFFFFFFFFFFFFFFFFFFFFFFFFFFFFFFFFFFFFFFFFFFF DUP3 SUB PUSH2 0x244E JUMPI PUSH2 0x244D PUSH2 0x223B JUMP JUMPDEST JUMPDEST PUSH1 0x1 DUP3 ADD SWAP1 POP SWAP2 SWAP1 POP JUMP JUMPDEST PUSH32 0x416D6F756E742073686F756C642062652067726561746572207468616E203021 PUSH0 DUP3 ADD MSTORE POP JUMP JUMPDEST PUSH0 PUSH2 0x248D PUSH1 0x20 DUP4 PUSH2 0x1B6B JUMP JUMPDEST SWAP2 POP PUSH2 0x2498 DUP3 PUSH2 0x2459 JUMP JUMPDEST PUSH1 0x20 DUP3 ADD SWAP1 POP SWAP2 SWAP1 POP JUMP JUMPDEST PUSH0 PUSH1 0x20 DUP3 ADD SWAP1 POP DUP2 DUP2 SUB PUSH0 DUP4 ADD MSTORE PUSH2 0x24BA DUP2 PUSH2 0x2481 JUMP JUMPDEST SWAP1 POP SWAP2 SWAP1 POP JUMP JUMPDEST PUSH0 PUSH1 0x60 DUP3 ADD SWAP1 POP PUSH2 0x24D4 PUSH0 DUP4 ADD DUP7 PUSH2 0x1B52 JUMP JUMPDEST PUSH2 0x24E1 PUSH1 0x20 DUP4 ADD DUP6 PUSH2 0x1B52 JUMP JUMPDEST PUSH2 0x24EE PUSH1 0x40 DUP4 ADD DUP5 PUSH2 0x1AE1 JUMP JUMPDEST SWAP5 SWAP4 POP POP POP POP JUMP JUMPDEST PUSH0 PUSH2 0x2500 DUP3 PUSH2 0x1A09 JUMP JUMPDEST SWAP2 POP PUSH2 0x250B DUP4 PUSH2 0x1A09 JUMP JUMPDEST SWAP3 POP DUP3 DUP3 ADD SWAP1 POP DUP1 DUP3 GT ISZERO PUSH2 0x2523 JUMPI PUSH2 0x2522 PUSH2 0x223B JUMP JUMPDEST JUMPDEST SWAP3 SWAP2 POP POP JUMP JUMPDEST PUSH0 PUSH2 0x2533 DUP3 PUSH2 0x1A09 JUMP JUMPDEST SWAP2 POP PUSH2 0x253E DUP4 PUSH2 0x1A09 JUMP JUMPDEST SWAP3 POP DUP3 DUP3 MUL PUSH2 0x254C DUP2 PUSH2 0x1A09 JUMP JUMPDEST SWAP2 POP DUP3 DUP3 DIV DUP5 EQ DUP4 ISZERO OR PUSH2 0x2563 JUMPI PUSH2 0x2562 PUSH2 0x223B JUMP JUMPDEST JUMPDEST POP SWAP3 SWAP2 POP POP JUMP JUMPDEST PUSH32 0x4F776E61626C653A206E6577206F776E657220697320746865207A65726F2061 PUSH0 DUP3 ADD MSTORE PUSH32 0x6464726573730000000000000000000000000000000000000000000000000000 PUSH1 0x20 DUP3 ADD MSTORE POP JUMP JUMPDEST PUSH0 PUSH2 0x25C4 PUSH1 0x26 DUP4 PUSH2 0x1B6B JUMP JUMPDEST SWAP2 POP PUSH2 0x25CF DUP3 PUSH2 0x256A JUMP JUMPDEST PUSH1 0x40 DUP3 ADD SWAP1 POP SWAP2 SWAP1 POP JUMP JUMPDEST PUSH0 PUSH1 0x20 DUP3 ADD SWAP1 POP DUP2 DUP2 SUB PUSH0 DUP4 ADD MSTORE PUSH2 0x25F1 DUP2 PUSH2 0x25B8 JUMP JUMPDEST SWAP1 POP SWAP2 SWAP1 POP JUMP JUMPDEST PUSH32 0x4F776E61626C653A2063616C6C6572206973206E6F7420746865206F776E6572 PUSH0 DUP3 ADD MSTORE POP JUMP JUMPDEST PUSH0 PUSH2 0x262C PUSH1 0x20 DUP4 PUSH2 0x1B6B JUMP JUMPDEST SWAP2 POP PUSH2 0x2637 DUP3 PUSH2 0x25F8 JUMP JUMPDEST PUSH1 0x20 DUP3 ADD SWAP1 POP SWAP2 SWAP1 POP JUMP JUMPDEST PUSH0 PUSH1 0x20 DUP3 ADD SWAP1 POP DUP2 DUP2 SUB PUSH0 DUP4 ADD MSTORE PUSH2 0x2659 DUP2 PUSH2 0x2620 JUMP JUMPDEST SWAP1 POP SWAP2 SWAP1 POP JUMP JUMPDEST PUSH32 0x4E487B7100000000000000000000000000000000000000000000000000000000 PUSH0 MSTORE PUSH1 0x12 PUSH1 0x4 MSTORE PUSH1 0x24 PUSH0 REVERT JUMPDEST PUSH0 PUSH2 0x2697 DUP3 PUSH2 0x1A09 JUMP JUMPDEST SWAP2 POP PUSH2 0x26A2 DUP4 PUSH2 0x1A09 JUMP JUMPDEST SWAP3 POP DUP3 PUSH2 0x26B2 JUMPI PUSH2 0x26B1 PUSH2 0x2660 JUMP JUMPDEST JUMPDEST DUP3 DUP3 DIV SWAP1 POP SWAP3 SWAP2 POP POP JUMP JUMPDEST PUSH32 0x4E487B7100000000000000000000000000000000000000000000000000000000 PUSH0 MSTORE PUSH1 0x41 PUSH1 0x4 MSTORE PUSH1 0x24 PUSH0 REVERT JUMPDEST PUSH0 DUP2 SWAP1 POP DUP2 PUSH0 MSTORE PUSH1 0x20 PUSH0 KECCAK256 SWAP1 POP SWAP2 SWAP1 POP JUMP JUMPDEST PUSH0 PUSH1 0x20 PUSH1 0x1F DUP4 ADD DIV SWAP1 POP SWAP2 SWAP1 POP JUMP JUMPDEST PUSH0 DUP3 DUP3 SHL SWAP1 POP SWAP3 SWAP2 POP POP JUMP JUMPDEST PUSH0 PUSH1 0x8 DUP4 MUL PUSH2 0x2746 PUSH32 0xFFFFFFFFFFFFFFFFFFFFFFFFFFFFFFFFFFFFFFFFFFFFFFFFFFFFFFFFFFFFFFFF DUP3 PUSH2 0x270B JUMP JUMPDEST PUSH2 0x2750 DUP7 DUP4 PUSH2 0x270B JUMP JUMPDEST SWAP6 POP DUP1 NOT DUP5 AND SWAP4 POP DUP1 DUP7 AND DUP5 OR SWAP3 POP POP POP SWAP4 SWAP3 POP POP POP JUMP JUMPDEST PUSH0 PUSH2 0x2782 PUSH2 0x277D PUSH2 0x2778 DUP5 PUSH2 0x1A09 JUMP JUMPDEST PUSH2 0x1A86 JUMP JUMPDEST PUSH2 0x1A09 JUMP JUMPDEST SWAP1 POP SWAP2 SWAP1 POP JUMP JUMPDEST PUSH0 DUP2 SWAP1 POP SWAP2 SWAP1 POP JUMP JUMPDEST PUSH2 0x279B DUP4 PUSH2 0x2768 JUMP JUMPDEST PUSH2 0x27AF PUSH2 0x27A7 DUP3 PUSH2 0x2789 JUMP JUMPDEST DUP5 DUP5 SLOAD PUSH2 0x2717 JUMP JUMPDEST DUP3 SSTORE POP POP POP POP JUMP JUMPDEST PUSH0 SWAP1 JUMP JUMPDEST PUSH2 0x27C3 PUSH2 0x27B7 JUMP JUMPDEST PUSH2 0x27CE DUP2 DUP5 DUP5 PUSH2 0x2792 JUMP JUMPDEST POP POP POP JUMP JUMPDEST JUMPDEST DUP2 DUP2 LT ISZERO PUSH2 0x27F1 JUMPI PUSH2 0x27E6 PUSH0 DUP3 PUSH2 0x27BB JUMP JUMPDEST PUSH1 0x1 DUP2 ADD SWAP1 POP PUSH2 0x27D4 JUMP JUMPDEST POP POP JUMP JUMPDEST PUSH1 0x1F DUP3 GT ISZERO PUSH2 0x2836 JUMPI PUSH2 0x2807 DUP2 PUSH2 0x26EA JUMP JUMPDEST PUSH2 0x2810 DUP5 PUSH2 0x26FC JUMP JUMPDEST DUP2 ADD PUSH1 0x20 DUP6 LT ISZERO PUSH2 0x281F JUMPI DUP2 SWAP1 POP JUMPDEST PUSH2 0x2833 PUSH2 0x282B DUP6 PUSH2 0x26FC JUMP JUMPDEST DUP4 ADD DUP3 PUSH2 0x27D3 JUMP JUMPDEST POP POP JUMPDEST POP POP POP JUMP JUMPDEST PUSH0 DUP3 DUP3 SHR SWAP1 POP SWAP3 SWAP2 POP POP JUMP JUMPDEST PUSH0 PUSH2 0x2856 PUSH0 NOT DUP5 PUSH1 0x8 MUL PUSH2 0x283B JUMP JUMPDEST NOT DUP1 DUP4 AND SWAP2 POP POP SWAP3 SWAP2 POP POP JUMP JUMPDEST PUSH0 PUSH2 0x286E DUP4 DUP4 PUSH2 0x2847 JUMP JUMPDEST SWAP2 POP DUP3 PUSH1 0x2 MUL DUP3 OR SWAP1 POP SWAP3 SWAP2 POP POP JUMP JUMPDEST PUSH2 0x2887 DUP3 PUSH2 0x1B61 JUMP JUMPDEST PUSH8 0xFFFFFFFFFFFFFFFF DUP2 GT ISZERO PUSH2 0x28A0 JUMPI PUSH2 0x289F PUSH2 0x26BD JUMP JUMPDEST JUMPDEST PUSH2 0x28AA DUP3 SLOAD PUSH2 0x201F JUMP JUMPDEST PUSH2 0x28B5 DUP3 DUP3 DUP6 PUSH2 0x27F5 JUMP JUMPDEST PUSH0 PUSH1 0x20 SWAP1 POP PUSH1 0x1F DUP4 GT PUSH1 0x1 DUP2 EQ PUSH2 0x28E6 JUMPI PUSH0 DUP5 ISZERO PUSH2 0x28D4 JUMPI DUP3 DUP8 ADD MLOAD SWAP1 POP JUMPDEST PUSH2 0x28DE DUP6 DUP3 PUSH2 0x2863 JUMP JUMPDEST DUP7 SSTORE POP PUSH2 0x2945 JUMP JUMPDEST PUSH1 0x1F NOT DUP5 AND PUSH2 0x28F4 DUP7 PUSH2 0x26EA JUMP JUMPDEST PUSH0 JUMPDEST DUP3 DUP2 LT ISZERO PUSH2 0x291B JUMPI DUP5 DUP10 ADD MLOAD DUP3 SSTORE PUSH1 0x1 DUP3 ADD SWAP2 POP PUSH1 0x20 DUP6 ADD SWAP5 POP PUSH1 0x20 DUP2 ADD SWAP1 POP PUSH2 0x28F6 JUMP JUMPDEST DUP7 DUP4 LT ISZERO PUSH2 0x2938 JUMPI DUP5 DUP10 ADD MLOAD PUSH2 0x2934 PUSH1 0x1F DUP10 AND DUP3 PUSH2 0x2847 JUMP JUMPDEST DUP4 SSTORE POP JUMPDEST PUSH1 0x1 PUSH1 0x2 DUP9 MUL ADD DUP9 SSTORE POP POP POP JUMPDEST POP POP POP POP POP POP JUMP JUMPDEST PUSH32 0x5361666545524332303A204552433230206F7065726174696F6E20646964206E PUSH0 DUP3 ADD MSTORE PUSH32 0x6F74207375636365656400000000000000000000000000000000000000000000 PUSH1 0x20 DUP3 ADD MSTORE POP JUMP JUMPDEST PUSH0 PUSH2 0x29A7 PUSH1 0x2A DUP4 PUSH2 0x1B6B JUMP JUMPDEST SWAP2 POP PUSH2 0x29B2 DUP3 PUSH2 0x294D JUMP JUMPDEST PUSH1 0x40 DUP3 ADD SWAP1 POP SWAP2 SWAP1 POP JUMP JUMPDEST PUSH0 PUSH1 0x20 DUP3 ADD SWAP1 POP DUP2 DUP2 SUB PUSH0 DUP4 ADD MSTORE PUSH2 0x29D4 DUP2 PUSH2 0x299B JUMP JUMPDEST SWAP1 POP SWAP2 SWAP1 POP JUMP JUMPDEST PUSH32 0x416464726573733A20696E73756666696369656E742062616C616E636520666F PUSH0 DUP3 ADD MSTORE PUSH32 0x722063616C6C0000000000000000000000000000000000000000000000000000 PUSH1 0x20 DUP3 ADD MSTORE POP JUMP JUMPDEST PUSH0 PUSH2 0x2A35 PUSH1 0x26 DUP4 PUSH2 0x1B6B JUMP JUMPDEST SWAP2 POP PUSH2 0x2A40 DUP3 PUSH2 0x29DB JUMP JUMPDEST PUSH1 0x40 DUP3 ADD SWAP1 POP SWAP2 SWAP1 POP JUMP JUMPDEST PUSH0 PUSH1 0x20 DUP3 ADD SWAP1 POP DUP2 DUP2 SUB PUSH0 DUP4 ADD MSTORE PUSH2 0x2A62 DUP2 PUSH2 0x2A29 JUMP JUMPDEST SWAP1 POP SWAP2 SWAP1 POP JUMP JUMPDEST PUSH32 0x416464726573733A2063616C6C20746F206E6F6E2D636F6E7472616374000000 PUSH0 DUP3 ADD MSTORE POP JUMP JUMPDEST PUSH0 PUSH2 0x2A9D PUSH1 0x1D DUP4 PUSH2 0x1B6B JUMP JUMPDEST SWAP2 POP PUSH2 0x2AA8 DUP3 PUSH2 0x2A69 JUMP JUMPDEST PUSH1 0x20 DUP3 ADD SWAP1 POP SWAP2 SWAP1 POP JUMP JUMPDEST PUSH0 PUSH1 0x20 DUP3 ADD SWAP1 POP DUP2 DUP2 SUB PUSH0 DUP4 ADD MSTORE PUSH2 0x2ACA DUP2 PUSH2 0x2A91 JUMP JUMPDEST SWAP1 POP SWAP2 SWAP1 POP JUMP JUMPDEST PUSH0 DUP2 MLOAD SWAP1 POP SWAP2 SWAP1 POP JUMP JUMPDEST PUSH0 DUP2 SWAP1 POP SWAP3 SWAP2 POP POP JUMP JUMPDEST PUSH0 PUSH2 0x2AEF DUP3 PUSH2 0x2AD1 JUMP JUMPDEST PUSH2 0x2AF9 DUP2 DUP6 PUSH2 0x2ADB JUMP JUMPDEST SWAP4 POP PUSH2 0x2B09 DUP2 DUP6 PUSH1 0x20 DUP7 ADD PUSH2 0x1B7B JUMP JUMPDEST DUP1 DUP5 ADD SWAP2 POP POP SWAP3 SWAP2 POP POP JUMP JUMPDEST PUSH0 PUSH2 0x2B20 DUP3 DUP5 PUSH2 0x2AE5 JUMP JUMPDEST SWAP2 POP DUP2 SWAP1 POP SWAP3 SWAP2 POP POP JUMP JUMPDEST PUSH0 PUSH1 0x20 DUP3 ADD SWAP1 POP DUP2 DUP2 SUB PUSH0 DUP4 ADD MSTORE PUSH2 0x2B43 DUP2 DUP5 PUSH2 0x1B99 JUMP JUMPDEST SWAP1 POP SWAP3 SWAP2 POP POP JUMP INVALID LOG2 PUSH5 0x6970667358 0x22 SLT KECCAK256 BYTE NUMBER ADD SSTORE 0x4C PUSH11 0x37D4457EAEF50598A1FA7 0xD0 SUB PC PUSH5 0x7722AB3985 PUSH8 0x31BEA8810064736F PUSH13 0x634300081A0033000000000000 "
    },
    "gasEstimates": {
      "creation": {
        "codeDepositCost": "2227400",
        "executionCost": "infinite",
        "totalCost": "infinite"
      },
      "external": {
        "addPool(address,address,uint256,uint256)": "infinite",
        "claimReward(uint256)": "infinite",
        "deposit(uint256,uint256)": "infinite",
        "depositedTokens(address)": "2891",
        "getNotifications()": "infinite",
        "modifyPool(uint256,uint256)": "infinite",
        "notifications(uint256)": "infinite",
        "owner()": "2582",
        "pendingReward(uint256,address)": "infinite",
        "poolCount()": "2513",
        "poolInfo(uint256)": "infinite",
        "renounceOwnership()": "30435",
        "sweep(address,uint256)": "infinite",
        "transferOwnership(address)": "30797",
        "userInfo(uint256,address)": "infinite",
        "withdraw(uint256,uint256)": "infinite"
      },
      "internal": {
        "_calcPendingReward(struct StakingDapp.UserInfo storage pointer,uint256)": "infinite",
        "_createNotification(uint256,uint256,address,string memory)": "infinite"
      }
    },
    "methodIdentifiers": {
      "addPool(address,address,uint256,uint256)": "c20632ba",
      "claimReward(uint256)": "ae169a50",
      "deposit(uint256,uint256)": "e2bbb158",
      "depositedTokens(address)": "c326bf4f",
      "getNotifications()": "cf48bd2c",
      "modifyPool(uint256,uint256)": "39739b99",
      "notifications(uint256)": "34c1f944",
      "owner()": "8da5cb5b",
      "pendingReward(uint256,address)": "98969e82",
      "poolCount()": "f525cb68",
      "poolInfo(uint256)": "1526fe27",
      "renounceOwnership()": "715018a6",
      "sweep(address,uint256)": "6ea056a9",
      "transferOwnership(address)": "f2fde38b",
      "userInfo(uint256,address)": "93f1a40b",
      "withdraw(uint256,uint256)": "441a3e70"
    }
  },
  "abi": [
    {
      "anonymous": false,
      "inputs": [
        {
          "indexed": true,
          "internalType": "address",
          "name": "previousOwner",
          "type": "address"
        },
        {
          "indexed": true,
          "internalType": "address",
          "name": "newOwner",
          "type": "address"
        }
      ],
      "name": "OwnershipTransferred",
      "type": "event"
    },
    {
      "inputs": [
        {
          "internalType": "contract IERC20",
          "name": "_depositToken",
          "type": "address"
        },
        {
          "internalType": "contract IERC20",
          "name": "_rewardToken",
          "type": "address"
        },
        {
          "internalType": "uint256",
          "name": "_apy",
          "type": "uint256"
        },
        {
          "internalType": "uint256",
          "name": "_lockDays",
          "type": "uint256"
        }
      ],
      "name": "addPool",
      "outputs": [],
      "stateMutability": "nonpayable",
      "type": "function"
    },
    {
      "inputs": [
        {
          "internalType": "uint256",
          "name": "_pid",
          "type": "uint256"
        }
      ],
      "name": "claimReward",
      "outputs": [],
      "stateMutability": "nonpayable",
      "type": "function"
    },
    {
      "inputs": [
        {
          "internalType": "uint256",
          "name": "_pid",
          "type": "uint256"
        },
        {
          "internalType": "uint256",
          "name": "_amount",
          "type": "uint256"
        }
      ],
      "name": "deposit",
      "outputs": [],
      "stateMutability": "nonpayable",
      "type": "function"
    },
    {
      "inputs": [
        {
          "internalType": "address",
          "name": "",
          "type": "address"
        }
      ],
      "name": "depositedTokens",
      "outputs": [
        {
          "internalType": "uint256",
          "name": "",
          "type": "uint256"
        }
      ],
      "stateMutability": "view",
      "type": "function"
    },
    {
      "inputs": [],
      "name": "getNotifications",
      "outputs": [
        {
          "components": [
            {
              "internalType": "uint256",
              "name": "poolID",
              "type": "uint256"
            },
            {
              "internalType": "uint256",
              "name": "amount",
              "type": "uint256"
            },
            {
              "internalType": "address",
              "name": "user",
              "type": "address"
            },
            {
              "internalType": "string",
              "name": "typeOf",
              "type": "string"
            },
            {
              "internalType": "uint256",
              "name": "timestamp",
              "type": "uint256"
            }
          ],
          "internalType": "struct StakingDapp.Notification[]",
          "name": "",
          "type": "tuple[]"
        }
      ],
      "stateMutability": "view",
      "type": "function"
    },
    {
      "inputs": [
        {
          "internalType": "uint256",
          "name": "_pid",
          "type": "uint256"
        },
        {
          "internalType": "uint256",
          "name": "_apy",
          "type": "uint256"
        }
      ],
      "name": "modifyPool",
      "outputs": [],
      "stateMutability": "nonpayable",
      "type": "function"
    },
    {
      "inputs": [
        {
          "internalType": "uint256",
          "name": "",
          "type": "uint256"
        }
      ],
      "name": "notifications",
      "outputs": [
        {
          "internalType": "uint256",
          "name": "poolID",
          "type": "uint256"
        },
        {
          "internalType": "uint256",
          "name": "amount",
          "type": "uint256"
        },
        {
          "internalType": "address",
          "name": "user",
          "type": "address"
        },
        {
          "internalType": "string",
          "name": "typeOf",
          "type": "string"
        },
        {
          "internalType": "uint256",
          "name": "timestamp",
          "type": "uint256"
        }
      ],
      "stateMutability": "view",
      "type": "function"
    },
    {
      "inputs": [],
      "name": "owner",
      "outputs": [
        {
          "internalType": "address",
          "name": "",
          "type": "address"
        }
      ],
      "stateMutability": "view",
      "type": "function"
    },
    {
      "inputs": [
        {
          "internalType": "uint256",
          "name": "_pid",
          "type": "uint256"
        },
        {
          "internalType": "address",
          "name": "_user",
          "type": "address"
        }
      ],
      "name": "pendingReward",
      "outputs": [
        {
          "internalType": "uint256",
          "name": "",
          "type": "uint256"
        }
      ],
      "stateMutability": "view",
      "type": "function"
    },
    {
      "inputs": [],
      "name": "poolCount",
      "outputs": [
        {
          "internalType": "uint256",
          "name": "",
          "type": "uint256"
        }
      ],
      "stateMutability": "view",
      "type": "function"
    },
    {
      "inputs": [
        {
          "internalType": "uint256",
          "name": "",
          "type": "uint256"
        }
      ],
      "name": "poolInfo",
      "outputs": [
        {
          "internalType": "contract IERC20",
          "name": "depositToken",
          "type": "address"
        },
        {
          "internalType": "contract IERC20",
          "name": "rewardToken",
          "type": "address"
        },
        {
          "internalType": "uint256",
          "name": "depositedAmount",
          "type": "uint256"
        },
        {
          "internalType": "uint256",
          "name": "apy",
          "type": "uint256"
        },
        {
          "internalType": "uint256",
          "name": "lockDays",
          "type": "uint256"
        }
      ],
      "stateMutability": "view",
      "type": "function"
    },
    {
      "inputs": [],
      "name": "renounceOwnership",
      "outputs": [],
      "stateMutability": "nonpayable",
      "type": "function"
    },
    {
      "inputs": [
        {
          "internalType": "address",
          "name": "token",
          "type": "address"
        },
        {
          "internalType": "uint256",
          "name": "amount",
          "type": "uint256"
        }
      ],
      "name": "sweep",
      "outputs": [],
      "stateMutability": "nonpayable",
      "type": "function"
    },
    {
      "inputs": [
        {
          "internalType": "address",
          "name": "newOwner",
          "type": "address"
        }
      ],
      "name": "transferOwnership",
      "outputs": [],
      "stateMutability": "nonpayable",
      "type": "function"
    },
    {
      "inputs": [
        {
          "internalType": "uint256",
          "name": "",
          "type": "uint256"
        },
        {
          "internalType": "address",
          "name": "",
          "type": "address"
        }
      ],
      "name": "userInfo",
      "outputs": [
        {
          "internalType": "uint256",
          "name": "amount",
          "type": "uint256"
        },
        {
          "internalType": "uint256",
          "name": "lastRewardAt",
          "type": "uint256"
        },
        {
          "internalType": "uint256",
          "name": "lockUntil",
          "type": "uint256"
        }
      ],
      "stateMutability": "view",
      "type": "function"
    },
    {
      "inputs": [
        {
          "internalType": "uint256",
          "name": "_pid",
          "type": "uint256"
        },
        {
          "internalType": "uint256",
          "name": "_amount",
          "type": "uint256"
        }
      ],
      "name": "withdraw",
      "outputs": [],
      "stateMutability": "nonpayable",
      "type": "function"
    }
  ]
}